{
  "contractName": "Parameterizer",
  "abi": [
    {
      "constant": true,
      "inputs": [],
      "name": "PROCESSBY",
      "outputs": [
        {
          "name": "",
          "type": "uint256"
        }
      ],
      "payable": false,
      "stateMutability": "view",
      "type": "function"
    },
    {
      "constant": true,
      "inputs": [
        {
          "name": "",
          "type": "bytes32"
        }
      ],
      "name": "proposals",
      "outputs": [
        {
          "name": "appExpiry",
          "type": "uint256"
        },
        {
          "name": "challengeID",
          "type": "uint256"
        },
        {
          "name": "deposit",
          "type": "uint256"
        },
        {
          "name": "name",
          "type": "string"
        },
        {
          "name": "owner",
          "type": "address"
        },
        {
          "name": "processBy",
          "type": "uint256"
        },
        {
          "name": "value",
          "type": "uint256"
        }
      ],
      "payable": false,
      "stateMutability": "view",
      "type": "function"
    },
    {
      "constant": true,
      "inputs": [
        {
          "name": "",
          "type": "uint256"
        }
      ],
      "name": "challenges",
      "outputs": [
        {
          "name": "rewardPool",
          "type": "uint256"
        },
        {
          "name": "challenger",
          "type": "address"
        },
        {
          "name": "resolved",
          "type": "bool"
        },
        {
          "name": "stake",
          "type": "uint256"
        },
        {
          "name": "winningTokens",
          "type": "uint256"
        }
      ],
      "payable": false,
      "stateMutability": "view",
      "type": "function"
    },
    {
      "constant": true,
      "inputs": [
        {
          "name": "",
          "type": "bytes32"
        }
      ],
      "name": "params",
      "outputs": [
        {
          "name": "",
          "type": "uint256"
        }
      ],
      "payable": false,
      "stateMutability": "view",
      "type": "function"
    },
    {
      "constant": true,
      "inputs": [],
      "name": "token",
      "outputs": [
        {
          "name": "",
          "type": "address"
        }
      ],
      "payable": false,
      "stateMutability": "view",
      "type": "function"
    },
    {
      "constant": true,
      "inputs": [],
      "name": "voting",
      "outputs": [
        {
          "name": "",
          "type": "address"
        }
      ],
      "payable": false,
      "stateMutability": "view",
      "type": "function"
    },
    {
      "anonymous": false,
      "inputs": [
        {
          "indexed": false,
          "name": "name",
          "type": "string"
        },
        {
          "indexed": false,
          "name": "value",
          "type": "uint256"
        },
        {
          "indexed": false,
          "name": "propID",
          "type": "bytes32"
        },
        {
          "indexed": false,
          "name": "deposit",
          "type": "uint256"
        },
        {
          "indexed": false,
          "name": "appEndDate",
          "type": "uint256"
        },
        {
          "indexed": true,
          "name": "proposer",
          "type": "address"
        }
      ],
      "name": "_ReparameterizationProposal",
      "type": "event"
    },
    {
      "anonymous": false,
      "inputs": [
        {
          "indexed": true,
          "name": "propID",
          "type": "bytes32"
        },
        {
          "indexed": false,
          "name": "challengeID",
          "type": "uint256"
        },
        {
          "indexed": false,
          "name": "commitEndDate",
          "type": "uint256"
        },
        {
          "indexed": false,
          "name": "revealEndDate",
          "type": "uint256"
        },
        {
          "indexed": true,
          "name": "challenger",
          "type": "address"
        }
      ],
      "name": "_NewChallenge",
      "type": "event"
    },
    {
      "anonymous": false,
      "inputs": [
        {
          "indexed": true,
          "name": "propID",
          "type": "bytes32"
        },
        {
          "indexed": false,
          "name": "name",
          "type": "string"
        },
        {
          "indexed": false,
          "name": "value",
          "type": "uint256"
        }
      ],
      "name": "_ProposalAccepted",
      "type": "event"
    },
    {
      "anonymous": false,
      "inputs": [
        {
          "indexed": true,
          "name": "propID",
          "type": "bytes32"
        }
      ],
      "name": "_ProposalExpired",
      "type": "event"
    },
    {
      "anonymous": false,
      "inputs": [
        {
          "indexed": true,
          "name": "propID",
          "type": "bytes32"
        },
        {
          "indexed": true,
          "name": "challengeID",
          "type": "uint256"
        },
        {
          "indexed": false,
          "name": "rewardPool",
          "type": "uint256"
        },
        {
          "indexed": false,
          "name": "totalTokens",
          "type": "uint256"
        }
      ],
      "name": "_ChallengeSucceeded",
      "type": "event"
    },
    {
      "anonymous": false,
      "inputs": [
        {
          "indexed": true,
          "name": "propID",
          "type": "bytes32"
        },
        {
          "indexed": true,
          "name": "challengeID",
          "type": "uint256"
        },
        {
          "indexed": false,
          "name": "rewardPool",
          "type": "uint256"
        },
        {
          "indexed": false,
          "name": "totalTokens",
          "type": "uint256"
        }
      ],
      "name": "_ChallengeFailed",
      "type": "event"
    },
    {
      "anonymous": false,
      "inputs": [
        {
          "indexed": true,
          "name": "challengeID",
          "type": "uint256"
        },
        {
          "indexed": false,
          "name": "reward",
          "type": "uint256"
        },
        {
          "indexed": true,
          "name": "voter",
          "type": "address"
        }
      ],
      "name": "_RewardClaimed",
      "type": "event"
    },
    {
      "constant": false,
      "inputs": [
        {
          "name": "_token",
          "type": "address"
        },
        {
          "name": "_plcr",
          "type": "address"
        },
        {
          "name": "_parameters",
          "type": "uint256[]"
        }
      ],
      "name": "init",
      "outputs": [],
      "payable": false,
      "stateMutability": "nonpayable",
      "type": "function"
    },
    {
      "constant": false,
      "inputs": [
        {
          "name": "_name",
          "type": "string"
        },
        {
          "name": "_value",
          "type": "uint256"
        }
      ],
      "name": "proposeReparameterization",
      "outputs": [
        {
          "name": "",
          "type": "bytes32"
        }
      ],
      "payable": false,
      "stateMutability": "nonpayable",
      "type": "function"
    },
    {
      "constant": false,
      "inputs": [
        {
          "name": "_propID",
          "type": "bytes32"
        }
      ],
      "name": "challengeReparameterization",
      "outputs": [
        {
          "name": "challengeID",
          "type": "uint256"
        }
      ],
      "payable": false,
      "stateMutability": "nonpayable",
      "type": "function"
    },
    {
      "constant": false,
      "inputs": [
        {
          "name": "_propID",
          "type": "bytes32"
        }
      ],
      "name": "processProposal",
      "outputs": [],
      "payable": false,
      "stateMutability": "nonpayable",
      "type": "function"
    },
    {
      "constant": false,
      "inputs": [
        {
          "name": "_challengeID",
          "type": "uint256"
        },
        {
          "name": "_salt",
          "type": "uint256"
        }
      ],
      "name": "claimReward",
      "outputs": [],
      "payable": false,
      "stateMutability": "nonpayable",
      "type": "function"
    },
    {
      "constant": false,
      "inputs": [
        {
          "name": "_challengeIDs",
          "type": "uint256[]"
        },
        {
          "name": "_salts",
          "type": "uint256[]"
        }
      ],
      "name": "claimRewards",
      "outputs": [],
      "payable": false,
      "stateMutability": "nonpayable",
      "type": "function"
    },
    {
      "constant": true,
      "inputs": [
        {
          "name": "_voter",
          "type": "address"
        },
        {
          "name": "_challengeID",
          "type": "uint256"
        },
        {
          "name": "_salt",
          "type": "uint256"
        }
      ],
      "name": "voterReward",
      "outputs": [
        {
          "name": "",
          "type": "uint256"
        }
      ],
      "payable": false,
      "stateMutability": "view",
      "type": "function"
    },
    {
      "constant": true,
      "inputs": [
        {
          "name": "_propID",
          "type": "bytes32"
        }
      ],
      "name": "canBeSet",
      "outputs": [
        {
          "name": "",
          "type": "bool"
        }
      ],
      "payable": false,
      "stateMutability": "view",
      "type": "function"
    },
    {
      "constant": true,
      "inputs": [
        {
          "name": "_propID",
          "type": "bytes32"
        }
      ],
      "name": "propExists",
      "outputs": [
        {
          "name": "",
          "type": "bool"
        }
      ],
      "payable": false,
      "stateMutability": "view",
      "type": "function"
    },
    {
      "constant": true,
      "inputs": [
        {
          "name": "_propID",
          "type": "bytes32"
        }
      ],
      "name": "challengeCanBeResolved",
      "outputs": [
        {
          "name": "",
          "type": "bool"
        }
      ],
      "payable": false,
      "stateMutability": "view",
      "type": "function"
    },
    {
      "constant": true,
      "inputs": [
        {
          "name": "_challengeID",
          "type": "uint256"
        }
      ],
      "name": "challengeWinnerReward",
      "outputs": [
        {
          "name": "",
          "type": "uint256"
        }
      ],
      "payable": false,
      "stateMutability": "view",
      "type": "function"
    },
    {
      "constant": true,
      "inputs": [
        {
          "name": "_name",
          "type": "string"
        }
      ],
      "name": "get",
      "outputs": [
        {
          "name": "value",
          "type": "uint256"
        }
      ],
      "payable": false,
      "stateMutability": "view",
      "type": "function"
    },
    {
      "constant": true,
      "inputs": [
        {
          "name": "_challengeID",
          "type": "uint256"
        },
        {
          "name": "_voter",
          "type": "address"
        }
      ],
      "name": "tokenClaims",
      "outputs": [
        {
          "name": "",
          "type": "bool"
        }
      ],
      "payable": false,
      "stateMutability": "view",
      "type": "function"
    }
  ],
  "bytecode": "0x608060405262093a8060055534801561001757600080fd5b50613dff806100276000396000f300608060405260043610610106576000357c0100000000000000000000000000000000000000000000000000000000900463ffffffff16806229514f1461010b57806330490e911461013657806332ed5b1214610167578063353009901461026757806344b77680146102b057806350411552146103565780635f02116f14610397578063693ec85e1461044057806377609a41146104bd5780638240ae4b1461050657806386bb8f371461054b5780638f1d377614610582578063a5ba3b1e1461060f578063a7aad3db14610674578063bade1c54146106df578063c51131fb1461076e578063dc6ab527146107b7578063fc0c546a146107fc578063fce1ccca14610853575b600080fd5b34801561011757600080fd5b506101206108aa565b6040518082815260200191505060405180910390f35b34801561014257600080fd5b5061016560048036038101908080356000191690602001909291905050506108b0565b005b34801561017357600080fd5b506101966004803603810190808035600019169060200190929190505050611019565b60405180888152602001878152602001868152602001806020018573ffffffffffffffffffffffffffffffffffffffff1673ffffffffffffffffffffffffffffffffffffffff168152602001848152602001838152602001828103825286818151815260200191508051906020019080838360005b8381101561022657808201518184015260208101905061020b565b50505050905090810190601f1680156102535780820380516001836020036101000a031916815260200191505b509850505050505050505060405180910390f35b34801561027357600080fd5b506102966004803603810190808035600019169060200190929190505050611113565b604051808215151515815260200191505060405180910390f35b3480156102bc57600080fd5b50610354600480360381019080803573ffffffffffffffffffffffffffffffffffffffff169060200190929190803573ffffffffffffffffffffffffffffffffffffffff1690602001909291908035906020019082018035906020019080806020026020016040519081016040528093929190818152602001838360200280828437820191505050505050919291929050505061113d565b005b34801561036257600080fd5b50610381600480360381019080803590602001909291905050506116ac565b6040518082815260200191505060405180910390f35b3480156103a357600080fd5b5061043e60048036038101908080359060200190820180359060200190808060200260200160405190810160405280939291908181526020018383602002808284378201915050505050509192919290803590602001908201803590602001908080602002602001604051908101604052809392919081815260200183836020028082843782019150505050505091929192905050506117dc565b005b34801561044c57600080fd5b506104a7600480360381019080803590602001908201803590602001908080601f0160208091040260200160405190810160405280939291908181526020018383808284378201915050505050509192919290505050611846565b6040518082815260200191505060405180910390f35b3480156104c957600080fd5b506104ec6004803603810190808035600019169060200190929190505050611938565b604051808215151515815260200191505060405180910390f35b34801561051257600080fd5b506105356004803603810190808035600019169060200190929190505050611c4e565b6040518082815260200191505060405180910390f35b34801561055757600080fd5b506105806004803603810190808035906020019092919080359060200190929190505050612387565b005b34801561058e57600080fd5b506105ad6004803603810190808035906020019092919050505061275d565b604051808681526020018573ffffffffffffffffffffffffffffffffffffffff1673ffffffffffffffffffffffffffffffffffffffff168152602001841515151581526020018381526020018281526020019550505050505060405180910390f35b34801561061b57600080fd5b5061065a60048036038101908080359060200190929190803573ffffffffffffffffffffffffffffffffffffffff1690602001909291905050506127c0565b604051808215151515815260200191505060405180910390f35b34801561068057600080fd5b506106c9600480360381019080803573ffffffffffffffffffffffffffffffffffffffff169060200190929190803590602001909291908035906020019092919050505061282b565b6040518082815260200191505060405180910390f35b3480156106eb57600080fd5b50610750600480360381019080803590602001908201803590602001908080601f016020809104026020016040519081016040528093929190818152602001838380828437820191505050505050919291929080359060200190929190505050612987565b60405180826000191660001916815260200191505060405180910390f35b34801561077a57600080fd5b5061079d6004803603810190808035600019169060200190929190505050613274565b604051808215151515815260200191505060405180910390f35b3480156107c357600080fd5b506107e660048036038101908080356000191690602001909291905050506133ff565b6040518082815260200191505060405180910390f35b34801561080857600080fd5b50610811613417565b604051808273ffffffffffffffffffffffffffffffffffffffff1673ffffffffffffffffffffffffffffffffffffffff16815260200191505060405180910390f35b34801561085f57600080fd5b5061086861343d565b604051808273ffffffffffffffffffffffffffffffffffffffff1673ffffffffffffffffffffffffffffffffffffffff16815260200191505060405180910390f35b60055481565b600080600060026000856000191660001916815260200190815260200160002092508260040160009054906101000a900473ffffffffffffffffffffffffffffffffffffffff1691508260020154905061090984613274565b15610c12576109b8836003018054600181600116156101000203166002900480601f0160208091040260200160405190810160405280929190818152602001828054600181600116156101000203166002900480156109a95780601f1061097e576101008083540402835291602001916109a9565b820191906000526020600020905b81548152906001019060200180831161098c57829003601f168201915b50505050508460060154613463565b83600019167f37f3986c71e1aa2c470cfc4a92af70820610c3065589d35ef1664ea27f3e73a58460030185600601546040518080602001838152602001828103825284818154600181600116156101000203166002900481526020019150805460018160011615610100020316600290048015610a765780601f10610a4b57610100808354040283529160200191610a76565b820191906000526020600020905b815481529060010190602001808311610a5957829003601f168201915b5050935050505060405180910390a260026000856000191660001916815260200190815260200160002060008082016000905560018201600090556002820160009055600382016000610ac99190613c4a565b6004820160006101000a81549073ffffffffffffffffffffffffffffffffffffffff0219169055600582016000905560068201600090555050600360009054906101000a900473ffffffffffffffffffffffffffffffffffffffff1673ffffffffffffffffffffffffffffffffffffffff1663a9059cbb83836040518363ffffffff167c0100000000000000000000000000000000000000000000000000000000028152600401808373ffffffffffffffffffffffffffffffffffffffff1673ffffffffffffffffffffffffffffffffffffffff16815260200182815260200192505050602060405180830381600087803b158015610bc757600080fd5b505af1158015610bdb573d6000803e3d6000fd5b505050506040513d6020811015610bf157600080fd5b81019080805190602001909291905050501515610c0d57600080fd5b610dff565b610c1b84611938565b15610c2e57610c2984613554565b610dfe565b8260050154421115610df85783600019167f29026cb2acebe6d0a4b6d593ccadf76e3fc6d0a02254e078b0c4a619608089d760405160405180910390a260026000856000191660001916815260200190815260200160002060008082016000905560018201600090556002820160009055600382016000610caf9190613c4a565b6004820160006101000a81549073ffffffffffffffffffffffffffffffffffffffff0219169055600582016000905560068201600090555050600360009054906101000a900473ffffffffffffffffffffffffffffffffffffffff1673ffffffffffffffffffffffffffffffffffffffff1663a9059cbb83836040518363ffffffff167c0100000000000000000000000000000000000000000000000000000000028152600401808373ffffffffffffffffffffffffffffffffffffffff1673ffffffffffffffffffffffffffffffffffffffff16815260200182815260200192505050602060405180830381600087803b158015610dad57600080fd5b505af1158015610dc1573d6000803e3d6000fd5b505050506040513d6020811015610dd757600080fd5b81019080805190602001909291905050501515610df357600080fd5b610dfd565b600080fd5b5b5b6064610e3f6040805190810160405280600f81526020017f64697370656e736174696f6e5063740000000000000000000000000000000000815250611846565b11151515610e4957fe5b6064610e896040805190810160405280601081526020017f7044697370656e736174696f6e50637400000000000000000000000000000000815250611846565b11151515610e9357fe5b610f95600554610f87610eda6040805190810160405280600f81526020017f7052657665616c53746167654c656e0000000000000000000000000000000000815250611846565b610f79610f1b6040805190810160405280600f81526020017f70436f6d6d697453746167654c656e0000000000000000000000000000000000815250611846565b610f6b610f5c6040805190810160405280600e81526020017f704170706c7953746167654c656e000000000000000000000000000000000000815250611846565b42613bc590919063ffffffff16565b613bc590919063ffffffff16565b613bc590919063ffffffff16565b613bc590919063ffffffff16565b5060026000856000191660001916815260200190815260200160002060008082016000905560018201600090556002820160009055600382016000610fda9190613c4a565b6004820160006101000a81549073ffffffffffffffffffffffffffffffffffffffff021916905560058201600090556006820160009055505050505050565b6002602052806000526040600020600091509050806000015490806001015490806002015490806003018054600181600116156101000203166002900480601f0160208091040260200160405190810160405280929190818152602001828054600181600116156101000203166002900480156110d75780601f106110ac576101008083540402835291602001916110d7565b820191906000526020600020905b8154815290600101906020018083116110ba57829003601f168201915b5050505050908060040160009054906101000a900473ffffffffffffffffffffffffffffffffffffffff16908060050154908060060154905087565b60008060026000846000191660001916815260200190815260200160002060050154119050919050565b60008373ffffffffffffffffffffffffffffffffffffffff161415801561119c57506000600360009054906101000a900473ffffffffffffffffffffffffffffffffffffffff1673ffffffffffffffffffffffffffffffffffffffff16145b15156111a757600080fd5b60008273ffffffffffffffffffffffffffffffffffffffff161415801561120657506000600460009054906101000a900473ffffffffffffffffffffffffffffffffffffffff1673ffffffffffffffffffffffffffffffffffffffff16145b151561121157600080fd5b82600360006101000a81548173ffffffffffffffffffffffffffffffffffffffff021916908373ffffffffffffffffffffffffffffffffffffffff16021790555081600460006101000a81548173ffffffffffffffffffffffffffffffffffffffff021916908373ffffffffffffffffffffffffffffffffffffffff1602179055506112ea6040805190810160405280600a81526020017f6d696e4465706f736974000000000000000000000000000000000000000000008152508260008151811015156112db57fe5b90602001906020020151613463565b6113416040805190810160405280600b81526020017f704d696e4465706f73697400000000000000000000000000000000000000000081525082600181518110151561133257fe5b90602001906020020151613463565b6113986040805190810160405280600d81526020017f6170706c7953746167654c656e0000000000000000000000000000000000000081525082600281518110151561138957fe5b90602001906020020151613463565b6113ef6040805190810160405280600e81526020017f704170706c7953746167654c656e0000000000000000000000000000000000008152508260038151811015156113e057fe5b90602001906020020151613463565b6114466040805190810160405280600e81526020017f636f6d6d697453746167654c656e00000000000000000000000000000000000081525082600481518110151561143757fe5b90602001906020020151613463565b61149d6040805190810160405280600f81526020017f70436f6d6d697453746167654c656e000000000000000000000000000000000081525082600581518110151561148e57fe5b90602001906020020151613463565b6114f46040805190810160405280600e81526020017f72657665616c53746167654c656e0000000000000000000000000000000000008152508260068151811015156114e557fe5b90602001906020020151613463565b61154b6040805190810160405280600f81526020017f7052657665616c53746167654c656e000000000000000000000000000000000081525082600781518110151561153c57fe5b90602001906020020151613463565b6115a26040805190810160405280600f81526020017f64697370656e736174696f6e506374000000000000000000000000000000000081525082600881518110151561159357fe5b90602001906020020151613463565b6115f96040805190810160405280601081526020017f7044697370656e736174696f6e506374000000000000000000000000000000008152508260098151811015156115ea57fe5b90602001906020020151613463565b6116506040805190810160405280600a81526020017f766f746551756f72756d0000000000000000000000000000000000000000000081525082600a81518110151561164157fe5b90602001906020020151613463565b6116a76040805190810160405280600b81526020017f70566f746551756f72756d00000000000000000000000000000000000000000081525082600b81518110151561169857fe5b90602001906020020151613463565b505050565b600080600460009054906101000a900473ffffffffffffffffffffffffffffffffffffffff1673ffffffffffffffffffffffffffffffffffffffff1663053e71a6846040518263ffffffff167c010000000000000000000000000000000000000000000000000000000002815260040180828152602001915050602060405180830381600087803b15801561174057600080fd5b505af1158015611754573d6000803e3d6000fd5b505050506040513d602081101561176a57600080fd5b810190808051906020019092919050505014156117a257600160008381526020019081526020016000206002015460020290506117d7565b600160008381526020019081526020016000206000015460016000848152602001908152602001600020600201546002020390505b919050565b6000815183511415156117ee57600080fd5b600090505b825181101561184157611834838281518110151561180d57fe5b90602001906020020151838381518110151561182557fe5b90602001906020020151612387565b80806001019150506117f3565b505050565b6000806000836040516020018082805190602001908083835b602083101515611884578051825260208201915060208101905060208303925061185f565b6001836020036101000a0380198251168184511680821785525050505050509050019150506040516020818303038152906040526040518082805190602001908083835b6020831015156118ed57805182526020820191506020810190506020830392506118c8565b6001836020036101000a038019825116818451168082178552505050505050905001915050604051809103902060001916600019168152602001908152602001600020549050919050565b6000611942613c92565b61194a613ce6565b60026000856000191660001916815260200190815260200160002060e06040519081016040529081600082015481526020016001820154815260200160028201548152602001600382018054600181600116156101000203166002900480601f016020809104026020016040519081016040528092919081815260200182805460018160011615610100020316600290048015611a285780601f106119fd57610100808354040283529160200191611a28565b820191906000526020600020905b815481529060010190602001808311611a0b57829003601f168201915b505050505081526020016004820160009054906101000a900473ffffffffffffffffffffffffffffffffffffffff1673ffffffffffffffffffffffffffffffffffffffff1673ffffffffffffffffffffffffffffffffffffffff168152602001600582015481526020016006820154815250509150600160008360200151815260200190815260200160002060a06040519081016040529081600082015481526020016001820160009054906101000a900473ffffffffffffffffffffffffffffffffffffffff1673ffffffffffffffffffffffffffffffffffffffff1673ffffffffffffffffffffffffffffffffffffffff1681526020016001820160149054906101000a900460ff1615151515815260200160028201548152602001600382015481525050905060008260200151118015611b6d57506000151581604001511515145b8015611c455750600460009054906101000a900473ffffffffffffffffffffffffffffffffffffffff1673ffffffffffffffffffffffffffffffffffffffff1663ee68483083602001516040518263ffffffff167c010000000000000000000000000000000000000000000000000000000002815260040180828152602001915050602060405180830381600087803b158015611c0957600080fd5b505af1158015611c1d573d6000803e3d6000fd5b505050506040513d6020811015611c3357600080fd5b81019080805190602001909291905050505b92505050919050565b6000611c58613c92565b60008060008060026000886000191660001916815260200190815260200160002060e06040519081016040529081600082015481526020016001820154815260200160028201548152602001600382018054600181600116156101000203166002900480601f016020809104026020016040519081016040528092919081815260200182805460018160011615610100020316600290048015611d3c5780601f10611d1157610100808354040283529160200191611d3c565b820191906000526020600020905b815481529060010190602001808311611d1f57829003601f168201915b505050505081526020016004820160009054906101000a900473ffffffffffffffffffffffffffffffffffffffff1673ffffffffffffffffffffffffffffffffffffffff1673ffffffffffffffffffffffffffffffffffffffff16815260200160058201548152602001600682015481525050945084604001519350611dc187611113565b8015611dd1575060008560200151145b1515611ddc57600080fd5b600460009054906101000a900473ffffffffffffffffffffffffffffffffffffffff1673ffffffffffffffffffffffffffffffffffffffff166332ed3d60611e586040805190810160405280600b81526020017f70566f746551756f72756d000000000000000000000000000000000000000000815250611846565b611e966040805190810160405280600f81526020017f70436f6d6d697453746167654c656e0000000000000000000000000000000000815250611846565b611ed46040805190810160405280600f81526020017f7052657665616c53746167654c656e0000000000000000000000000000000000815250611846565b6040518463ffffffff167c0100000000000000000000000000000000000000000000000000000000028152600401808481526020018381526020018281526020019350505050602060405180830381600087803b158015611f3457600080fd5b505af1158015611f48573d6000803e3d6000fd5b505050506040513d6020811015611f5e57600080fd5b8101908080519060200190929190505050925060a060405190810160405280611fea6064611fdc88611fce6064611fc96040805190810160405280601081526020017f7044697370656e736174696f6e50637400000000000000000000000000000000815250611846565b613be3565b613bfc90919063ffffffff16565b613c2f90919063ffffffff16565b81526020013373ffffffffffffffffffffffffffffffffffffffff1681526020016000151581526020018581526020016000815250600160008581526020019081526020016000206000820151816000015560208201518160010160006101000a81548173ffffffffffffffffffffffffffffffffffffffff021916908373ffffffffffffffffffffffffffffffffffffffff16021790555060408201518160010160146101000a81548160ff02191690831515021790555060608201518160020155608082015181600301559050508260026000896000191660001916815260200190815260200160002060010181905550600360009054906101000a900473ffffffffffffffffffffffffffffffffffffffff1673ffffffffffffffffffffffffffffffffffffffff166323b872dd3330876040518463ffffffff167c0100000000000000000000000000000000000000000000000000000000028152600401808473ffffffffffffffffffffffffffffffffffffffff1673ffffffffffffffffffffffffffffffffffffffff1681526020018373ffffffffffffffffffffffffffffffffffffffff1673ffffffffffffffffffffffffffffffffffffffff1681526020018281526020019350505050602060405180830381600087803b1580156121d657600080fd5b505af11580156121ea573d6000803e3d6000fd5b505050506040513d602081101561220057600080fd5b8101908080519060200190929190505050151561221c57600080fd5b600460009054906101000a900473ffffffffffffffffffffffffffffffffffffffff1673ffffffffffffffffffffffffffffffffffffffff16636148fed5846040518263ffffffff167c01000000000000000000000000000000000000000000000000000000000281526004018082815260200191505060a060405180830381600087803b1580156122ad57600080fd5b505af11580156122c1573d6000803e3d6000fd5b505050506040513d60a08110156122d757600080fd5b810190808051906020019092919080519060200190929190805190602001909291908051906020019092919080519060200190929190505050505050915091503373ffffffffffffffffffffffffffffffffffffffff1687600019167fe94e3086c4bfe84acba4437b85a80fca3721dfc419d1f7afe4fa4e470e670b4885858560405180848152602001838152602001828152602001935050505060405180910390a38295505050505050919050565b600080600015156001600086815260200190815260200160002060040160003373ffffffffffffffffffffffffffffffffffffffff1673ffffffffffffffffffffffffffffffffffffffff16815260200190815260200160002060009054906101000a900460ff1615151415156123fd57600080fd5b600115156001600086815260200190815260200160002060010160149054906101000a900460ff16151514151561243357600080fd5b600460009054906101000a900473ffffffffffffffffffffffffffffffffffffffff1673ffffffffffffffffffffffffffffffffffffffff1663b43bd0693386866040518463ffffffff167c0100000000000000000000000000000000000000000000000000000000028152600401808473ffffffffffffffffffffffffffffffffffffffff1673ffffffffffffffffffffffffffffffffffffffff1681526020018381526020018281526020019350505050602060405180830381600087803b15801561250057600080fd5b505af1158015612514573d6000803e3d6000fd5b505050506040513d602081101561252a57600080fd5b8101908080519060200190929190505050915061254833858561282b565b9050816001600086815260200190815260200160002060030160008282540392505081905550806001600086815260200190815260200160002060000160008282540392505081905550600180600086815260200190815260200160002060040160003373ffffffffffffffffffffffffffffffffffffffff1673ffffffffffffffffffffffffffffffffffffffff16815260200190815260200160002060006101000a81548160ff0219169083151502179055503373ffffffffffffffffffffffffffffffffffffffff16847f6f4c982acc31b0af2cf1dc1556f21c0325d893782d65e83c68a5534a33f59957836040518082815260200191505060405180910390a3600360009054906101000a900473ffffffffffffffffffffffffffffffffffffffff1673ffffffffffffffffffffffffffffffffffffffff1663a9059cbb33836040518363ffffffff167c0100000000000000000000000000000000000000000000000000000000028152600401808373ffffffffffffffffffffffffffffffffffffffff1673ffffffffffffffffffffffffffffffffffffffff16815260200182815260200192505050602060405180830381600087803b15801561271157600080fd5b505af1158015612725573d6000803e3d6000fd5b505050506040513d602081101561273b57600080fd5b8101908080519060200190929190505050151561275757600080fd5b50505050565b60016020528060005260406000206000915090508060000154908060010160009054906101000a900473ffffffffffffffffffffffffffffffffffffffff16908060010160149054906101000a900460ff16908060020154908060030154905085565b60006001600084815260200190815260200160002060040160008373ffffffffffffffffffffffffffffffffffffffff1673ffffffffffffffffffffffffffffffffffffffff16815260200190815260200160002060009054906101000a900460ff16905092915050565b6000806000806001600087815260200190815260200160002060030154925060016000878152602001908152602001600020600001549150600460009054906101000a900473ffffffffffffffffffffffffffffffffffffffff1673ffffffffffffffffffffffffffffffffffffffff1663b43bd0698888886040518463ffffffff167c0100000000000000000000000000000000000000000000000000000000028152600401808473ffffffffffffffffffffffffffffffffffffffff1673ffffffffffffffffffffffffffffffffffffffff1681526020018381526020018281526020019350505050602060405180830381600087803b15801561293057600080fd5b505af1158015612944573d6000803e3d6000fd5b505050506040513d602081101561295a57600080fd5b810190808051906020019092919050505090508282820281151561297a57fe5b0493505050509392505050565b60008060006129ca6040805190810160405280600b81526020017f704d696e4465706f736974000000000000000000000000000000000000000000815250611846565b915084846040516020018083805190602001908083835b602083101515612a0657805182526020820191506020810190506020830392506129e1565b6001836020036101000a038019825116818451168082178552505050505050905001828152602001925050506040516020818303038152906040526040518082805190602001908083835b602083101515612a765780518252602082019150602081019050602083039250612a51565b6001836020036101000a0380198251168184511680821785525050505050509050019150506040518091039020905060405160200180807f64697370656e736174696f6e5063740000000000000000000000000000000000815250600f0190506040516020818303038152906040526040518082805190602001908083835b602083101515612b1a5780518252602082019150602081019050602083039250612af5565b6001836020036101000a038019825116818451168082178552505050505050905001915050604051809103902060001916856040516020018082805190602001908083835b602083101515612b845780518252602082019150602081019050602083039250612b5f565b6001836020036101000a0380198251168184511680821785525050505050509050019150506040516020818303038152906040526040518082805190602001908083835b602083101515612bed5780518252602082019150602081019050602083039250612bc8565b6001836020036101000a0380198251168184511680821785525050505050509050019150506040518091039020600019161480612da0575060405160200180807f7044697370656e736174696f6e5063740000000000000000000000000000000081525060100190506040516020818303038152906040526040518082805190602001908083835b602083101515612c9a5780518252602082019150602081019050602083039250612c75565b6001836020036101000a038019825116818451168082178552505050505050905001915050604051809103902060001916856040516020018082805190602001908083835b602083101515612d045780518252602082019150602081019050602083039250612cdf565b6001836020036101000a0380198251168184511680821785525050505050509050019150506040516020818303038152906040526040518082805190602001908083835b602083101515612d6d5780518252602082019150602081019050602083039250612d48565b6001836020036101000a038019825116818451168082178552505050505050905001915050604051809103902060001916145b15612db65760648411151515612db557600080fd5b5b612dbf81611113565b151515612dcb57600080fd5b83612dd586611846565b14151515612de257600080fd5b60e060405190810160405280612e3e612e2f6040805190810160405280600e81526020017f704170706c7953746167654c656e000000000000000000000000000000000000815250611846565b42613bc590919063ffffffff16565b8152602001600081526020018381526020018681526020013373ffffffffffffffffffffffffffffffffffffffff168152602001612f74600554612f66612eb96040805190810160405280600f81526020017f7052657665616c53746167654c656e0000000000000000000000000000000000815250611846565b612f58612efa6040805190810160405280600f81526020017f70436f6d6d697453746167654c656e0000000000000000000000000000000000815250611846565b612f4a612f3b6040805190810160405280600e81526020017f704170706c7953746167654c656e000000000000000000000000000000000000815250611846565b42613bc590919063ffffffff16565b613bc590919063ffffffff16565b613bc590919063ffffffff16565b613bc590919063ffffffff16565b8152602001858152506002600083600019166000191681526020019081526020016000206000820151816000015560208201518160010155604082015181600201556060820151816003019080519060200190612fd2929190613d2e565b5060808201518160040160006101000a81548173ffffffffffffffffffffffffffffffffffffffff021916908373ffffffffffffffffffffffffffffffffffffffff16021790555060a0820151816005015560c08201518160060155905050600360009054906101000a900473ffffffffffffffffffffffffffffffffffffffff1673ffffffffffffffffffffffffffffffffffffffff166323b872dd3330856040518463ffffffff167c0100000000000000000000000000000000000000000000000000000000028152600401808473ffffffffffffffffffffffffffffffffffffffff1673ffffffffffffffffffffffffffffffffffffffff1681526020018373ffffffffffffffffffffffffffffffffffffffff1673ffffffffffffffffffffffffffffffffffffffff1681526020018281526020019350505050602060405180830381600087803b15801561312a57600080fd5b505af115801561313e573d6000803e3d6000fd5b505050506040513d602081101561315457600080fd5b8101908080519060200190929190505050151561317057600080fd5b3373ffffffffffffffffffffffffffffffffffffffff167fb25bdef16105f099e5c185f9c7fd969571e8e0caa3f7bd75409512fe0a41a60b868684866002600088600019166000191681526020019081526020016000206000015460405180806020018681526020018560001916600019168152602001848152602001838152602001828103825287818151815260200191508051906020019080838360005b8381101561322b578082015181840152602081019050613210565b50505050905090810190601f1680156132585780820380516001836020036101000a031916815260200191505b50965050505050505060405180910390a2809250505092915050565b600061327e613c92565b60026000846000191660001916815260200190815260200160002060e06040519081016040529081600082015481526020016001820154815260200160028201548152602001600382018054600181600116156101000203166002900480601f01602080910402602001604051908101604052809291908181526020018280546001816001161561010002031660029004801561335c5780601f106133315761010080835404028352916020019161335c565b820191906000526020600020905b81548152906001019060200180831161333f57829003601f168201915b505050505081526020016004820160009054906101000a900473ffffffffffffffffffffffffffffffffffffffff1673ffffffffffffffffffffffffffffffffffffffff1673ffffffffffffffffffffffffffffffffffffffff1681526020016005820154815260200160068201548152505090508060000151421180156133e757508060a0015142105b80156133f7575060008160200151145b915050919050565b60006020528060005260406000206000915090505481565b600360009054906101000a900473ffffffffffffffffffffffffffffffffffffffff1681565b600460009054906101000a900473ffffffffffffffffffffffffffffffffffffffff1681565b80600080846040516020018082805190602001908083835b6020831015156134a0578051825260208201915060208101905060208303925061347b565b6001836020036101000a0380198251168184511680821785525050505050509050019150506040516020818303038152906040526040518082805190602001908083835b60208310151561350957805182526020820191506020810190506020830392506134e4565b6001836020036101000a038019825116818451168082178552505050505050905001915050604051809103902060001916600019168152602001908152602001600020819055505050565b61355c613c92565b60008060026000856000191660001916815260200190815260200160002060e06040519081016040529081600082015481526020016001820154815260200160028201548152602001600382018054600181600116156101000203166002900480601f01602080910402602001604051908101604052809291908181526020018280546001816001161561010002031660029004801561363d5780601f106136125761010080835404028352916020019161363d565b820191906000526020600020905b81548152906001019060200180831161362057829003601f168201915b505050505081526020016004820160009054906101000a900473ffffffffffffffffffffffffffffffffffffffff1673ffffffffffffffffffffffffffffffffffffffff1673ffffffffffffffffffffffffffffffffffffffff168152602001600582015481526020016006820154815250509250600160008460200151815260200190815260200160002091506136d883602001516116ac565b9050600460009054906101000a900473ffffffffffffffffffffffffffffffffffffffff1673ffffffffffffffffffffffffffffffffffffffff1663053e71a684602001516040518263ffffffff167c010000000000000000000000000000000000000000000000000000000002815260040180828152602001915050602060405180830381600087803b15801561376f57600080fd5b505af1158015613783573d6000803e3d6000fd5b505050506040513d602081101561379957600080fd5b8101908080519060200190929190505050826003018190555060018260010160146101000a81548160ff021916908315150217905550600460009054906101000a900473ffffffffffffffffffffffffffffffffffffffff1673ffffffffffffffffffffffffffffffffffffffff16634940318384602001516040518263ffffffff167c010000000000000000000000000000000000000000000000000000000002815260040180828152602001915050602060405180830381600087803b15801561386457600080fd5b505af1158015613878573d6000803e3d6000fd5b505050506040513d602081101561388e57600080fd5b810190808051906020019092919050505015613a2857428360a0015111156138c3576138c283606001518460c00151613463565b5b826020015184600019167fc4497224aa78dd50c9b3e344aab02596201ca1e6dca4057a91a6c02f83f4f6c184600001548560030154604051808381526020018281526020019250505060405180910390a3600360009054906101000a900473ffffffffffffffffffffffffffffffffffffffff1673ffffffffffffffffffffffffffffffffffffffff1663a9059cbb8460800151836040518363ffffffff167c0100000000000000000000000000000000000000000000000000000000028152600401808373ffffffffffffffffffffffffffffffffffffffff1673ffffffffffffffffffffffffffffffffffffffff16815260200182815260200192505050602060405180830381600087803b1580156139dd57600080fd5b505af11580156139f1573d6000803e3d6000fd5b505050506040513d6020811015613a0757600080fd5b81019080805190602001909291905050501515613a2357600080fd5b613bbf565b826020015184600019167f362a12431f779a2baff4f77f75ba7960ae993a5c41b425df11f7fd0af2b9cbe684600001548560030154604051808381526020018281526020019250505060405180910390a3600360009054906101000a900473ffffffffffffffffffffffffffffffffffffffff1673ffffffffffffffffffffffffffffffffffffffff1663a9059cbb600160008660200151815260200190815260200160002060010160009054906101000a900473ffffffffffffffffffffffffffffffffffffffff16836040518363ffffffff167c0100000000000000000000000000000000000000000000000000000000028152600401808373ffffffffffffffffffffffffffffffffffffffff1673ffffffffffffffffffffffffffffffffffffffff16815260200182815260200192505050602060405180830381600087803b158015613b7857600080fd5b505af1158015613b8c573d6000803e3d6000fd5b505050506040513d6020811015613ba257600080fd5b81019080805190602001909291905050501515613bbe57600080fd5b5b50505050565b6000808284019050838110151515613bd957fe5b8091505092915050565b6000828211151515613bf157fe5b818303905092915050565b60008082840290506000841480613c1d5750828482811515613c1a57fe5b04145b1515613c2557fe5b8091505092915050565b6000808284811515613c3d57fe5b0490508091505092915050565b50805460018160011615610100020316600290046000825580601f10613c705750613c8f565b601f016020900490600052602060002090810190613c8e9190613dae565b5b50565b60e06040519081016040528060008152602001600081526020016000815260200160608152602001600073ffffffffffffffffffffffffffffffffffffffff16815260200160008152602001600081525090565b60a06040519081016040528060008152602001600073ffffffffffffffffffffffffffffffffffffffff16815260200160001515815260200160008152602001600081525090565b828054600181600116156101000203166002900490600052602060002090601f016020900481019282601f10613d6f57805160ff1916838001178555613d9d565b82800160010185558215613d9d579182015b82811115613d9c578251825591602001919060010190613d81565b5b509050613daa9190613dae565b5090565b613dd091905b80821115613dcc576000816000905550600101613db4565b5090565b905600a165627a7a723058205fd68d8ce1c4da30cf6c94d9359aa8f90e385023b968c186334f816f2cb62f660029",
  "source": "pragma solidity^0.4.11;\n\nimport \"plcr-revival/PLCRVoting.sol\";\nimport \"tokens/eip20/EIP20Interface.sol\";\nimport \"zeppelin/math/SafeMath.sol\";\n\ncontract Parameterizer {\n\n    // ------\n    // EVENTS\n    // ------\n\n    event _ReparameterizationProposal(string name, uint value, bytes32 propID, uint deposit, uint appEndDate, address indexed proposer);\n    event _NewChallenge(bytes32 indexed propID, uint challengeID, uint commitEndDate, uint revealEndDate, address indexed challenger);\n    event _ProposalAccepted(bytes32 indexed propID, string name, uint value);\n    event _ProposalExpired(bytes32 indexed propID);\n    event _ChallengeSucceeded(bytes32 indexed propID, uint indexed challengeID, uint rewardPool, uint totalTokens);\n    event _ChallengeFailed(bytes32 indexed propID, uint indexed challengeID, uint rewardPool, uint totalTokens);\n    event _RewardClaimed(uint indexed challengeID, uint reward, address indexed voter);\n\n\n    // ------\n    // DATA STRUCTURES\n    // ------\n\n    using SafeMath for uint;\n\n    struct ParamProposal {\n        uint appExpiry;\n        uint challengeID;\n        uint deposit;\n        string name;\n        address owner;\n        uint processBy;\n        uint value;\n    }\n\n    struct Challenge {\n        uint rewardPool;        // (remaining) pool of tokens distributed amongst winning voters\n        address challenger;     // owner of Challenge\n        bool resolved;          // indication of if challenge is resolved\n        uint stake;             // number of tokens at risk for either party during challenge\n        uint winningTokens;     // (remaining) amount of tokens used for voting by the winning side\n        mapping(address => bool) tokenClaims;\n    }\n\n    // ------\n    // STATE\n    // ------\n\n    mapping(bytes32 => uint) public params;\n\n    // maps challengeIDs to associated challenge data\n    mapping(uint => Challenge) public challenges;\n\n    // maps pollIDs to intended data change if poll passes\n    mapping(bytes32 => ParamProposal) public proposals;\n\n    // Global Variables\n    EIP20Interface public token;\n    PLCRVoting public voting;\n    uint public PROCESSBY = 604800; // 7 days\n\n    /**\n    @dev Initializer        Can only be called once\n    @param _token           The address where the ERC20 token contract is deployed\n    @param _plcr            address of a PLCR voting contract for the provided token\n    @notice _parameters     array of canonical parameters\n    */\n    function init(\n        address _token,\n        address _plcr,\n        uint[] _parameters\n    ) public {\n        require(_token != 0 && address(token) == 0);\n        require(_plcr != 0 && address(voting) == 0);\n\n        token = EIP20Interface(_token);\n        voting = PLCRVoting(_plcr);\n\n        // minimum deposit for listing to be whitelisted\n        set(\"minDeposit\", _parameters[0]);\n        \n        // minimum deposit to propose a reparameterization\n        set(\"pMinDeposit\", _parameters[1]);\n\n        // period over which applicants wait to be whitelisted\n        set(\"applyStageLen\", _parameters[2]);\n\n        // period over which reparmeterization proposals wait to be processed\n        set(\"pApplyStageLen\", _parameters[3]);\n\n        // length of commit period for voting\n        set(\"commitStageLen\", _parameters[4]);\n        \n        // length of commit period for voting in parameterizer\n        set(\"pCommitStageLen\", _parameters[5]);\n        \n        // length of reveal period for voting\n        set(\"revealStageLen\", _parameters[6]);\n\n        // length of reveal period for voting in parameterizer\n        set(\"pRevealStageLen\", _parameters[7]);\n\n        // percentage of losing party's deposit distributed to winning party\n        set(\"dispensationPct\", _parameters[8]);\n\n        // percentage of losing party's deposit distributed to winning party in parameterizer\n        set(\"pDispensationPct\", _parameters[9]);\n\n        // type of majority out of 100 necessary for candidate success\n        set(\"voteQuorum\", _parameters[10]);\n\n        // type of majority out of 100 necessary for proposal success in parameterizer\n        set(\"pVoteQuorum\", _parameters[11]);\n    }\n\n    // -----------------------\n    // TOKEN HOLDER INTERFACE\n    // -----------------------\n\n    /**\n    @notice propose a reparamaterization of the key _name's value to _value.\n    @param _name the name of the proposed param to be set\n    @param _value the proposed value to set the param to be set\n    */\n    function proposeReparameterization(string _name, uint _value) public returns (bytes32) {\n        uint deposit = get(\"pMinDeposit\");\n        bytes32 propID = keccak256(abi.encodePacked(_name, _value));\n\n        if (keccak256(abi.encodePacked(_name)) == keccak256(abi.encodePacked(\"dispensationPct\")) ||\n            keccak256(abi.encodePacked(_name)) == keccak256(abi.encodePacked(\"pDispensationPct\"))) {\n            require(_value <= 100);\n        }\n\n        require(!propExists(propID)); // Forbid duplicate proposals\n        require(get(_name) != _value); // Forbid NOOP reparameterizations\n\n        // attach name and value to pollID\n        proposals[propID] = ParamProposal({\n            appExpiry: now.add(get(\"pApplyStageLen\")),\n            challengeID: 0,\n            deposit: deposit,\n            name: _name,\n            owner: msg.sender,\n            processBy: now.add(get(\"pApplyStageLen\"))\n                .add(get(\"pCommitStageLen\"))\n                .add(get(\"pRevealStageLen\"))\n                .add(PROCESSBY),\n            value: _value\n        });\n\n        require(token.transferFrom(msg.sender, this, deposit)); // escrow tokens (deposit amt)\n\n        emit _ReparameterizationProposal(_name, _value, propID, deposit, proposals[propID].appExpiry, msg.sender);\n        return propID;\n    }\n\n    /**\n    @notice challenge the provided proposal ID, and put tokens at stake to do so.\n    @param _propID the proposal ID to challenge\n    */\n    function challengeReparameterization(bytes32 _propID) public returns (uint challengeID) {\n        ParamProposal memory prop = proposals[_propID];\n        uint deposit = prop.deposit;\n\n        require(propExists(_propID) && prop.challengeID == 0);\n\n        //start poll\n        uint pollID = voting.startPoll(\n            get(\"pVoteQuorum\"),\n            get(\"pCommitStageLen\"),\n            get(\"pRevealStageLen\")\n        );\n\n        challenges[pollID] = Challenge({\n            challenger: msg.sender,\n            rewardPool: SafeMath.sub(100, get(\"pDispensationPct\")).mul(deposit).div(100),\n            stake: deposit,\n            resolved: false,\n            winningTokens: 0\n        });\n\n        proposals[_propID].challengeID = pollID;       // update listing to store most recent challenge\n\n        //take tokens from challenger\n        require(token.transferFrom(msg.sender, this, deposit));\n\n        var (commitEndDate, revealEndDate,) = voting.pollMap(pollID);\n\n        emit _NewChallenge(_propID, pollID, commitEndDate, revealEndDate, msg.sender);\n        return pollID;\n    }\n\n    /**\n    @notice             for the provided proposal ID, set it, resolve its challenge, or delete it depending on whether it can be set, has a challenge which can be resolved, or if its \"process by\" date has passed\n    @param _propID      the proposal ID to make a determination and state transition for\n    */\n    function processProposal(bytes32 _propID) public {\n        ParamProposal storage prop = proposals[_propID];\n        address propOwner = prop.owner;\n        uint propDeposit = prop.deposit;\n\n        \n        // Before any token transfers, deleting the proposal will ensure that if reentrancy occurs the\n        // prop.owner and prop.deposit will be 0, thereby preventing theft\n        if (canBeSet(_propID)) {\n            // There is no challenge against the proposal. The processBy date for the proposal has not\n            // passed, but the proposal's appExpirty date has passed.\n            set(prop.name, prop.value);\n            emit _ProposalAccepted(_propID, prop.name, prop.value);\n            delete proposals[_propID];\n            require(token.transfer(propOwner, propDeposit));\n        } else if (challengeCanBeResolved(_propID)) {\n            // There is a challenge against the proposal.\n            resolveChallenge(_propID);\n        } else if (now > prop.processBy) {\n            // There is no challenge against the proposal, but the processBy date has passed.\n            emit _ProposalExpired(_propID);\n            delete proposals[_propID];\n            require(token.transfer(propOwner, propDeposit));\n        } else {\n            // There is no challenge against the proposal, and neither the appExpiry date nor the\n            // processBy date has passed.\n            revert();\n        }\n\n        assert(get(\"dispensationPct\") <= 100);\n        assert(get(\"pDispensationPct\") <= 100);\n\n        // verify that future proposal appExpiry and processBy times will not overflow\n        now.add(get(\"pApplyStageLen\"))\n            .add(get(\"pCommitStageLen\"))\n            .add(get(\"pRevealStageLen\"))\n            .add(PROCESSBY);\n\n        delete proposals[_propID];\n    }\n\n    /**\n    @notice                 Claim the tokens owed for the msg.sender in the provided challenge\n    @param _challengeID     the challenge ID to claim tokens for\n    @param _salt            the salt used to vote in the challenge being withdrawn for\n    */\n    function claimReward(uint _challengeID, uint _salt) public {\n        // ensure voter has not already claimed tokens and challenge results have been processed\n        require(challenges[_challengeID].tokenClaims[msg.sender] == false);\n        require(challenges[_challengeID].resolved == true);\n\n        uint voterTokens = voting.getNumPassingTokens(msg.sender, _challengeID, _salt);\n        uint reward = voterReward(msg.sender, _challengeID, _salt);\n\n        // subtract voter's information to preserve the participation ratios of other voters\n        // compared to the remaining pool of rewards\n        challenges[_challengeID].winningTokens -= voterTokens;\n        challenges[_challengeID].rewardPool -= reward;\n\n        // ensures a voter cannot claim tokens again\n        challenges[_challengeID].tokenClaims[msg.sender] = true;\n\n        emit _RewardClaimed(_challengeID, reward, msg.sender);\n        require(token.transfer(msg.sender, reward));\n    }\n\n    /**\n    @dev                    Called by a voter to claim their rewards for each completed vote.\n                            Someone must call updateStatus() before this can be called.\n    @param _challengeIDs    The PLCR pollIDs of the challenges rewards are being claimed for\n    @param _salts           The salts of a voter's commit hashes in the given polls\n    */\n    function claimRewards(uint[] _challengeIDs, uint[] _salts) public {\n        // make sure the array lengths are the same\n        require(_challengeIDs.length == _salts.length);\n\n        // loop through arrays, claiming each individual vote reward\n        for (uint i = 0; i < _challengeIDs.length; i++) {\n            claimReward(_challengeIDs[i], _salts[i]);\n        }\n    }\n\n    // --------\n    // GETTERS\n    // --------\n\n    /**\n    @dev                Calculates the provided voter's token reward for the given poll.\n    @param _voter       The address of the voter whose reward balance is to be returned\n    @param _challengeID The ID of the challenge the voter's reward is being calculated for\n    @param _salt        The salt of the voter's commit hash in the given poll\n    @return             The uint indicating the voter's reward\n    */\n    function voterReward(address _voter, uint _challengeID, uint _salt)\n    public view returns (uint) {\n        uint winningTokens = challenges[_challengeID].winningTokens;\n        uint rewardPool = challenges[_challengeID].rewardPool;\n        uint voterTokens = voting.getNumPassingTokens(_voter, _challengeID, _salt);\n        return (voterTokens * rewardPool) / winningTokens;\n    }\n\n    /**\n    @notice Determines whether a proposal passed its application stage without a challenge\n    @param _propID The proposal ID for which to determine whether its application stage passed without a challenge\n    */\n    function canBeSet(bytes32 _propID) view public returns (bool) {\n        ParamProposal memory prop = proposals[_propID];\n\n        return (now > prop.appExpiry && now < prop.processBy && prop.challengeID == 0);\n    }\n\n    /**\n    @notice Determines whether a proposal exists for the provided proposal ID\n    @param _propID The proposal ID whose existance is to be determined\n    */\n    function propExists(bytes32 _propID) view public returns (bool) {\n        return proposals[_propID].processBy > 0;\n    }\n\n    /**\n    @notice Determines whether the provided proposal ID has a challenge which can be resolved\n    @param _propID The proposal ID whose challenge to inspect\n    */\n    function challengeCanBeResolved(bytes32 _propID) view public returns (bool) {\n        ParamProposal memory prop = proposals[_propID];\n        Challenge memory challenge = challenges[prop.challengeID];\n\n        return (prop.challengeID > 0 && challenge.resolved == false && voting.pollEnded(prop.challengeID));\n    }\n\n    /**\n    @notice Determines the number of tokens to awarded to the winning party in a challenge\n    @param _challengeID The challengeID to determine a reward for\n    */\n    function challengeWinnerReward(uint _challengeID) public view returns (uint) {\n        if(voting.getTotalNumberOfTokensForWinningOption(_challengeID) == 0) {\n            // Edge case, nobody voted, give all tokens to the challenger.\n            return 2 * challenges[_challengeID].stake;\n        }\n\n        return (2 * challenges[_challengeID].stake) - challenges[_challengeID].rewardPool;\n    }\n\n    /**\n    @notice gets the parameter keyed by the provided name value from the params mapping\n    @param _name the key whose value is to be determined\n    */\n    function get(string _name) public view returns (uint value) {\n        return params[keccak256(abi.encodePacked(_name))];\n    }\n\n    /**\n    @dev                Getter for Challenge tokenClaims mappings\n    @param _challengeID The challengeID to query\n    @param _voter       The voter whose claim status to query for the provided challengeID\n    */\n    function tokenClaims(uint _challengeID, address _voter) public view returns (bool) {\n        return challenges[_challengeID].tokenClaims[_voter];\n    }\n\n    // ----------------\n    // PRIVATE FUNCTIONS\n    // ----------------\n\n    /**\n    @dev resolves a challenge for the provided _propID. It must be checked in advance whether the _propID has a challenge on it\n    @param _propID the proposal ID whose challenge is to be resolved.\n    */\n    function resolveChallenge(bytes32 _propID) private {\n        ParamProposal memory prop = proposals[_propID];\n        Challenge storage challenge = challenges[prop.challengeID];\n\n        // winner gets back their full staked deposit, and dispensationPct*loser's stake\n        uint reward = challengeWinnerReward(prop.challengeID);\n\n        challenge.winningTokens = voting.getTotalNumberOfTokensForWinningOption(prop.challengeID);\n        challenge.resolved = true;\n\n        if (voting.isPassed(prop.challengeID)) { // The challenge failed\n            if(prop.processBy > now) {\n                set(prop.name, prop.value);\n            }\n            emit _ChallengeFailed(_propID, prop.challengeID, challenge.rewardPool, challenge.winningTokens);\n            require(token.transfer(prop.owner, reward));\n        }\n        else { // The challenge succeeded or nobody voted\n            emit _ChallengeSucceeded(_propID, prop.challengeID, challenge.rewardPool, challenge.winningTokens);\n            require(token.transfer(challenges[prop.challengeID].challenger, reward));\n        }\n    }\n\n    /**\n    @dev sets the param keted by the provided name to the provided value\n    @param _name the name of the param to be set\n    @param _value the value to set the param to be set\n    */\n    function set(string _name, uint _value) private {\n        params[keccak256(abi.encodePacked(_name))] = _value;\n    }\n}\n\n",
  "sourcePath": "/Users/edu/Dappnode/eduadiez/tcr/contracts/Parameterizer.sol",
  "compiler": {
    "name": "solc",
    "version": "0.4.26+commit.4563c3fc.Emscripten.clang"
  },
  "schemaVersion": "3.3.4",
  "updatedAt": "2021-02-23T18:54:10.242Z",
  "devdoc": {
    "methods": {
      "canBeSet(bytes32)": {
        "params": {
          "_propID": "The proposal ID for which to determine whether its application stage passed without a challenge"
        }
      },
      "challengeCanBeResolved(bytes32)": {
        "params": {
          "_propID": "The proposal ID whose challenge to inspect"
        }
      },
      "challengeReparameterization(bytes32)": {
        "params": {
          "_propID": "the proposal ID to challenge"
        }
      },
      "challengeWinnerReward(uint256)": {
        "params": {
          "_challengeID": "The challengeID to determine a reward for"
        }
      },
      "claimReward(uint256,uint256)": {
        "params": {
          "_challengeID": "the challenge ID to claim tokens for",
          "_salt": "the salt used to vote in the challenge being withdrawn for"
        }
      },
      "claimRewards(uint256[],uint256[])": {
        "details": "Called by a voter to claim their rewards for each completed vote. Someone must call updateStatus() before this can be called.",
        "params": {
          "_challengeIDs": "The PLCR pollIDs of the challenges rewards are being claimed for",
          "_salts": "The salts of a voter's commit hashes in the given polls"
        }
      },
      "get(string)": {
        "params": {
          "_name": "the key whose value is to be determined"
        }
      },
      "init(address,address,uint256[])": {
        "details": "Initializer        Can only be called once",
        "params": {
          "_plcr": "address of a PLCR voting contract for the provided token",
          "_token": "The address where the ERC20 token contract is deployed"
        }
      },
      "processProposal(bytes32)": {
        "params": {
          "_propID": "the proposal ID to make a determination and state transition for"
        }
      },
      "propExists(bytes32)": {
        "params": {
          "_propID": "The proposal ID whose existance is to be determined"
        }
      },
      "proposeReparameterization(string,uint256)": {
        "params": {
          "_name": "the name of the proposed param to be set",
          "_value": "the proposed value to set the param to be set"
        }
      },
      "tokenClaims(uint256,address)": {
        "details": "Getter for Challenge tokenClaims mappings",
        "params": {
          "_challengeID": "The challengeID to query",
          "_voter": "The voter whose claim status to query for the provided challengeID"
        }
      },
      "voterReward(address,uint256,uint256)": {
        "details": "Calculates the provided voter's token reward for the given poll.",
        "params": {
          "_challengeID": "The ID of the challenge the voter's reward is being calculated for",
          "_salt": "The salt of the voter's commit hash in the given poll",
          "_voter": "The address of the voter whose reward balance is to be returned"
        },
        "return": "The uint indicating the voter's reward"
      }
    }
  },
  "userdoc": {
    "methods": {
      "canBeSet(bytes32)": {
        "notice": "Determines whether a proposal passed its application stage without a challenge"
      },
      "challengeCanBeResolved(bytes32)": {
        "notice": "Determines whether the provided proposal ID has a challenge which can be resolved"
      },
      "challengeReparameterization(bytes32)": {
        "notice": "challenge the provided proposal ID, and put tokens at stake to do so."
      },
      "challengeWinnerReward(uint256)": {
        "notice": "Determines the number of tokens to awarded to the winning party in a challenge"
      },
      "claimReward(uint256,uint256)": {
        "notice": "Claim the tokens owed for the msg.sender in the provided challenge"
      },
      "get(string)": {
        "notice": "gets the parameter keyed by the provided name value from the params mapping"
      },
      "init(address,address,uint256[])": {
        "notice": "_parameters     array of canonical parameters"
      },
      "processProposal(bytes32)": {
        "notice": "for the provided proposal ID, set it, resolve its challenge, or delete it depending on whether it can be set, has a challenge which can be resolved, or if its \"process by\" date has passed"
      },
      "propExists(bytes32)": {
        "notice": "Determines whether a proposal exists for the provided proposal ID"
      },
      "proposeReparameterization(string,uint256)": {
        "notice": "propose a reparamaterization of the key _name's value to _value."
      }
    }
  }
}