{
  "contractName": "Registry",
  "abi": [
    {
      "constant": true,
      "inputs": [],
      "name": "name",
      "outputs": [
        {
          "name": "",
          "type": "string"
        }
      ],
      "payable": false,
      "stateMutability": "view",
      "type": "function"
    },
    {
      "constant": true,
      "inputs": [
        {
          "name": "",
          "type": "uint256"
        }
      ],
      "name": "challenges",
      "outputs": [
        {
          "name": "rewardPool",
          "type": "uint256"
        },
        {
          "name": "challenger",
          "type": "address"
        },
        {
          "name": "resolved",
          "type": "bool"
        },
        {
          "name": "stake",
          "type": "uint256"
        },
        {
          "name": "totalTokens",
          "type": "uint256"
        }
      ],
      "payable": false,
      "stateMutability": "view",
      "type": "function"
    },
    {
      "constant": true,
      "inputs": [
        {
          "name": "",
          "type": "bytes32"
        }
      ],
      "name": "listings",
      "outputs": [
        {
          "name": "applicationExpiry",
          "type": "uint256"
        },
        {
          "name": "whitelisted",
          "type": "bool"
        },
        {
          "name": "owner",
          "type": "address"
        },
        {
          "name": "unstakedDeposit",
          "type": "uint256"
        },
        {
          "name": "challengeID",
          "type": "uint256"
        }
      ],
      "payable": false,
      "stateMutability": "view",
      "type": "function"
    },
    {
      "constant": true,
      "inputs": [],
      "name": "parameterizer",
      "outputs": [
        {
          "name": "",
          "type": "address"
        }
      ],
      "payable": false,
      "stateMutability": "view",
      "type": "function"
    },
    {
      "constant": true,
      "inputs": [],
      "name": "token",
      "outputs": [
        {
          "name": "",
          "type": "address"
        }
      ],
      "payable": false,
      "stateMutability": "view",
      "type": "function"
    },
    {
      "constant": true,
      "inputs": [],
      "name": "voting",
      "outputs": [
        {
          "name": "",
          "type": "address"
        }
      ],
      "payable": false,
      "stateMutability": "view",
      "type": "function"
    },
    {
      "anonymous": false,
      "inputs": [
        {
          "indexed": true,
          "name": "listingHash",
          "type": "bytes32"
        },
        {
          "indexed": false,
          "name": "deposit",
          "type": "uint256"
        },
        {
          "indexed": false,
          "name": "appEndDate",
          "type": "uint256"
        },
        {
          "indexed": false,
          "name": "listingID",
          "type": "string"
        },
        {
          "indexed": false,
          "name": "data",
          "type": "string"
        },
        {
          "indexed": true,
          "name": "applicant",
          "type": "address"
        }
      ],
      "name": "_Application",
      "type": "event"
    },
    {
      "anonymous": false,
      "inputs": [
        {
          "indexed": true,
          "name": "listingHash",
          "type": "bytes32"
        },
        {
          "indexed": false,
          "name": "challengeID",
          "type": "uint256"
        },
        {
          "indexed": false,
          "name": "data",
          "type": "string"
        },
        {
          "indexed": false,
          "name": "commitEndDate",
          "type": "uint256"
        },
        {
          "indexed": false,
          "name": "revealEndDate",
          "type": "uint256"
        },
        {
          "indexed": true,
          "name": "challenger",
          "type": "address"
        }
      ],
      "name": "_Challenge",
      "type": "event"
    },
    {
      "anonymous": false,
      "inputs": [
        {
          "indexed": true,
          "name": "listingHash",
          "type": "bytes32"
        },
        {
          "indexed": false,
          "name": "added",
          "type": "uint256"
        },
        {
          "indexed": false,
          "name": "newTotal",
          "type": "uint256"
        },
        {
          "indexed": true,
          "name": "owner",
          "type": "address"
        }
      ],
      "name": "_Deposit",
      "type": "event"
    },
    {
      "anonymous": false,
      "inputs": [
        {
          "indexed": true,
          "name": "listingHash",
          "type": "bytes32"
        },
        {
          "indexed": false,
          "name": "withdrew",
          "type": "uint256"
        },
        {
          "indexed": false,
          "name": "newTotal",
          "type": "uint256"
        },
        {
          "indexed": true,
          "name": "owner",
          "type": "address"
        }
      ],
      "name": "_Withdrawal",
      "type": "event"
    },
    {
      "anonymous": false,
      "inputs": [
        {
          "indexed": true,
          "name": "listingHash",
          "type": "bytes32"
        }
      ],
      "name": "_ApplicationWhitelisted",
      "type": "event"
    },
    {
      "anonymous": false,
      "inputs": [
        {
          "indexed": true,
          "name": "listingHash",
          "type": "bytes32"
        }
      ],
      "name": "_ApplicationRemoved",
      "type": "event"
    },
    {
      "anonymous": false,
      "inputs": [
        {
          "indexed": true,
          "name": "listingHash",
          "type": "bytes32"
        }
      ],
      "name": "_ListingRemoved",
      "type": "event"
    },
    {
      "anonymous": false,
      "inputs": [
        {
          "indexed": true,
          "name": "listingHash",
          "type": "bytes32"
        }
      ],
      "name": "_ListingWithdrawn",
      "type": "event"
    },
    {
      "anonymous": false,
      "inputs": [
        {
          "indexed": true,
          "name": "listingHash",
          "type": "bytes32"
        }
      ],
      "name": "_TouchAndRemoved",
      "type": "event"
    },
    {
      "anonymous": false,
      "inputs": [
        {
          "indexed": true,
          "name": "listingHash",
          "type": "bytes32"
        },
        {
          "indexed": true,
          "name": "challengeID",
          "type": "uint256"
        },
        {
          "indexed": false,
          "name": "rewardPool",
          "type": "uint256"
        },
        {
          "indexed": false,
          "name": "totalTokens",
          "type": "uint256"
        }
      ],
      "name": "_ChallengeFailed",
      "type": "event"
    },
    {
      "anonymous": false,
      "inputs": [
        {
          "indexed": true,
          "name": "listingHash",
          "type": "bytes32"
        },
        {
          "indexed": true,
          "name": "challengeID",
          "type": "uint256"
        },
        {
          "indexed": false,
          "name": "rewardPool",
          "type": "uint256"
        },
        {
          "indexed": false,
          "name": "totalTokens",
          "type": "uint256"
        }
      ],
      "name": "_ChallengeSucceeded",
      "type": "event"
    },
    {
      "anonymous": false,
      "inputs": [
        {
          "indexed": true,
          "name": "challengeID",
          "type": "uint256"
        },
        {
          "indexed": false,
          "name": "reward",
          "type": "uint256"
        },
        {
          "indexed": true,
          "name": "voter",
          "type": "address"
        }
      ],
      "name": "_RewardClaimed",
      "type": "event"
    },
    {
      "constant": false,
      "inputs": [
        {
          "name": "_token",
          "type": "address"
        },
        {
          "name": "_voting",
          "type": "address"
        },
        {
          "name": "_parameterizer",
          "type": "address"
        },
        {
          "name": "_name",
          "type": "string"
        }
      ],
      "name": "init",
      "outputs": [],
      "payable": false,
      "stateMutability": "nonpayable",
      "type": "function"
    },
    {
      "constant": false,
      "inputs": [
        {
          "name": "_listingHash",
          "type": "bytes32"
        },
        {
          "name": "_amount",
          "type": "uint256"
        },
        {
          "name": "_listingID",
          "type": "string"
        },
        {
          "name": "_data",
          "type": "string"
        }
      ],
      "name": "apply",
      "outputs": [],
      "payable": false,
      "stateMutability": "nonpayable",
      "type": "function"
    },
    {
      "constant": false,
      "inputs": [
        {
          "name": "_listingHash",
          "type": "bytes32"
        },
        {
          "name": "_amount",
          "type": "uint256"
        }
      ],
      "name": "deposit",
      "outputs": [],
      "payable": false,
      "stateMutability": "nonpayable",
      "type": "function"
    },
    {
      "constant": false,
      "inputs": [
        {
          "name": "_listingHash",
          "type": "bytes32"
        },
        {
          "name": "_amount",
          "type": "uint256"
        }
      ],
      "name": "withdraw",
      "outputs": [],
      "payable": false,
      "stateMutability": "nonpayable",
      "type": "function"
    },
    {
      "constant": false,
      "inputs": [
        {
          "name": "_listingHash",
          "type": "bytes32"
        }
      ],
      "name": "exit",
      "outputs": [],
      "payable": false,
      "stateMutability": "nonpayable",
      "type": "function"
    },
    {
      "constant": false,
      "inputs": [
        {
          "name": "_listingHash",
          "type": "bytes32"
        },
        {
          "name": "_data",
          "type": "string"
        }
      ],
      "name": "challenge",
      "outputs": [
        {
          "name": "challengeID",
          "type": "uint256"
        }
      ],
      "payable": false,
      "stateMutability": "nonpayable",
      "type": "function"
    },
    {
      "constant": false,
      "inputs": [
        {
          "name": "_listingHash",
          "type": "bytes32"
        }
      ],
      "name": "updateStatus",
      "outputs": [],
      "payable": false,
      "stateMutability": "nonpayable",
      "type": "function"
    },
    {
      "constant": false,
      "inputs": [
        {
          "name": "_listingHashes",
          "type": "bytes32[]"
        }
      ],
      "name": "updateStatuses",
      "outputs": [],
      "payable": false,
      "stateMutability": "nonpayable",
      "type": "function"
    },
    {
      "constant": false,
      "inputs": [
        {
          "name": "_challengeID",
          "type": "uint256"
        },
        {
          "name": "_salt",
          "type": "uint256"
        }
      ],
      "name": "claimReward",
      "outputs": [],
      "payable": false,
      "stateMutability": "nonpayable",
      "type": "function"
    },
    {
      "constant": false,
      "inputs": [
        {
          "name": "_challengeIDs",
          "type": "uint256[]"
        },
        {
          "name": "_salts",
          "type": "uint256[]"
        }
      ],
      "name": "claimRewards",
      "outputs": [],
      "payable": false,
      "stateMutability": "nonpayable",
      "type": "function"
    },
    {
      "constant": true,
      "inputs": [
        {
          "name": "_voter",
          "type": "address"
        },
        {
          "name": "_challengeID",
          "type": "uint256"
        },
        {
          "name": "_salt",
          "type": "uint256"
        }
      ],
      "name": "voterReward",
      "outputs": [
        {
          "name": "",
          "type": "uint256"
        }
      ],
      "payable": false,
      "stateMutability": "view",
      "type": "function"
    },
    {
      "constant": true,
      "inputs": [
        {
          "name": "_listingHash",
          "type": "bytes32"
        }
      ],
      "name": "canBeWhitelisted",
      "outputs": [
        {
          "name": "",
          "type": "bool"
        }
      ],
      "payable": false,
      "stateMutability": "view",
      "type": "function"
    },
    {
      "constant": true,
      "inputs": [
        {
          "name": "_listingHash",
          "type": "bytes32"
        }
      ],
      "name": "isWhitelisted",
      "outputs": [
        {
          "name": "whitelisted",
          "type": "bool"
        }
      ],
      "payable": false,
      "stateMutability": "view",
      "type": "function"
    },
    {
      "constant": true,
      "inputs": [
        {
          "name": "_listingHash",
          "type": "bytes32"
        }
      ],
      "name": "appWasMade",
      "outputs": [
        {
          "name": "exists",
          "type": "bool"
        }
      ],
      "payable": false,
      "stateMutability": "view",
      "type": "function"
    },
    {
      "constant": true,
      "inputs": [
        {
          "name": "_listingHash",
          "type": "bytes32"
        }
      ],
      "name": "challengeExists",
      "outputs": [
        {
          "name": "",
          "type": "bool"
        }
      ],
      "payable": false,
      "stateMutability": "view",
      "type": "function"
    },
    {
      "constant": true,
      "inputs": [
        {
          "name": "_listingHash",
          "type": "bytes32"
        }
      ],
      "name": "challengeCanBeResolved",
      "outputs": [
        {
          "name": "",
          "type": "bool"
        }
      ],
      "payable": false,
      "stateMutability": "view",
      "type": "function"
    },
    {
      "constant": true,
      "inputs": [
        {
          "name": "_challengeID",
          "type": "uint256"
        }
      ],
      "name": "determineReward",
      "outputs": [
        {
          "name": "",
          "type": "uint256"
        }
      ],
      "payable": false,
      "stateMutability": "view",
      "type": "function"
    },
    {
      "constant": true,
      "inputs": [
        {
          "name": "_challengeID",
          "type": "uint256"
        },
        {
          "name": "_voter",
          "type": "address"
        }
      ],
      "name": "tokenClaims",
      "outputs": [
        {
          "name": "",
          "type": "bool"
        }
      ],
      "payable": false,
      "stateMutability": "view",
      "type": "function"
    }
  ],
  "bytecode": "0x608060405234801561001057600080fd5b50613812806100206000396000f30060806040526004361061013e576000357c0100000000000000000000000000000000000000000000000000000000900463ffffffff16806301a5e3fe14610143578063040cf0201461018c57806306fdde03146101c75780630ca36263146102575780631b7bbecb146102885780631de26e16146102d157806324f91d831461030c57806343cffefe146103d55780634754131c146104325780635f02116f1461049d578063691a38ab1461054657806377609a411461058f57806386bb8f37146105d85780638a59eb561461060f5780638c82dccb146106405780638cf8151f146106a65780638f1d3776146106ef578063a5ba3b1e1461077c578063a7aad3db146107e1578063c18b8db41461084c578063c8187cf1146108dd578063e1e3f9151461091e578063fc0c546a14610975578063fce1ccca146109cc575b600080fd5b34801561014f57600080fd5b506101726004803603810190808035600019169060200190929190505050610a23565b604051808215151515815260200191505060405180910390f35b34801561019857600080fd5b506101c5600480360381019080803560001916906020019092919080359060200190929190505050610a58565b005b3480156101d357600080fd5b506101dc610d7a565b6040518080602001828103825283818151815260200191508051906020019080838360005b8381101561021c578082015181840152602081019050610201565b50505050905090810190601f1680156102495780820380516001836020036101000a031916815260200191505b509250505060405180910390f35b34801561026357600080fd5b506102866004803603810190808035600019169060200190929190505050610e18565b005b34801561029457600080fd5b506102b76004803603810190808035600019169060200190929190505050610f28565b604051808215151515815260200191505060405180910390f35b3480156102dd57600080fd5b5061030a600480360381019080803560001916906020019092919080359060200190929190505050610fa2565b005b34801561031857600080fd5b506103d3600480360381019080803573ffffffffffffffffffffffffffffffffffffffff169060200190929190803573ffffffffffffffffffffffffffffffffffffffff169060200190929190803573ffffffffffffffffffffffffffffffffffffffff169060200190929190803590602001908201803590602001908080601f01602080910402602001604051908101604052809392919081815260200183838082843782019150505050505091929192905050506111d4565b005b3480156103e157600080fd5b5061041c60048036038101908080356000191690602001909291908035906020019082018035906020019190919293919293905050506113f2565b6040518082815260200191505060405180910390f35b34801561043e57600080fd5b5061049b600480360381019080803560001916906020019092919080359060200190929190803590602001908201803590602001919091929391929390803590602001908201803590602001919091929391929390505050611ea6565b005b3480156104a957600080fd5b50610544600480360381019080803590602001908201803590602001908080602002602001604051908101604052809392919081815260200183836020028082843782019150505050505091929192908035906020019082018035906020019080806020026020016040519081016040528093929190818152602001838360200280828437820191505050505050919291929050505061236c565b005b34801561055257600080fd5b5061057560048036038101908080356000191690602001909291905050506123d6565b604051808215151515815260200191505060405180910390f35b34801561059b57600080fd5b506105be6004803603810190808035600019169060200190929190505050612494565b604051808215151515815260200191505060405180910390f35b3480156105e457600080fd5b5061060d60048036038101908080359060200190929190803590602001909291905050506125a0565b005b34801561061b57600080fd5b5061063e6004803603810190808035600019169060200190929190505050612972565b005b34801561064c57600080fd5b506106a4600480360381019080803590602001908201803590602001908080602002602001604051908101604052809392919081815260200183836020028082843782019150505050505091929192905050506129b3565b005b3480156106b257600080fd5b506106d560048036038101908080356000191690602001909291905050506129f3565b604051808215151515815260200191505060405180910390f35b3480156106fb57600080fd5b5061071a60048036038101908080359060200190929190505050612a1d565b604051808681526020018573ffffffffffffffffffffffffffffffffffffffff1673ffffffffffffffffffffffffffffffffffffffff168152602001841515151581526020018381526020018281526020019550505050505060405180910390f35b34801561078857600080fd5b506107c760048036038101908080359060200190929190803573ffffffffffffffffffffffffffffffffffffffff169060200190929190505050612a80565b604051808215151515815260200191505060405180910390f35b3480156107ed57600080fd5b50610836600480360381019080803573ffffffffffffffffffffffffffffffffffffffff1690602001909291908035906020019092919080359060200190929190505050612aea565b6040518082815260200191505060405180910390f35b34801561085857600080fd5b5061087b6004803603810190808035600019169060200190929190505050612c44565b60405180868152602001851515151581526020018473ffffffffffffffffffffffffffffffffffffffff1673ffffffffffffffffffffffffffffffffffffffff1681526020018381526020018281526020019550505050505060405180910390f35b3480156108e957600080fd5b5061090860048036038101908080359060200190929190505050612ca7565b6040518082815260200191505060405180910390f35b34801561092a57600080fd5b50610933612ed8565b604051808273ffffffffffffffffffffffffffffffffffffffff1673ffffffffffffffffffffffffffffffffffffffff16815260200191505060405180910390f35b34801561098157600080fd5b5061098a612efe565b604051808273ffffffffffffffffffffffffffffffffffffffff1673ffffffffffffffffffffffffffffffffffffffff16815260200191505060405180910390f35b3480156109d857600080fd5b506109e1612f24565b604051808273ffffffffffffffffffffffffffffffffffffffff1673ffffffffffffffffffffffffffffffffffffffff16815260200191505060405180910390f35b600060016000836000191660001916815260200190815260200160002060010160009054906101000a900460ff169050919050565b600060016000846000191660001916815260200190815260200160002090503373ffffffffffffffffffffffffffffffffffffffff168160010160019054906101000a900473ffffffffffffffffffffffffffffffffffffffff1673ffffffffffffffffffffffffffffffffffffffff16141515610ad557600080fd5b80600201548211151515610ae857600080fd5b600460009054906101000a900473ffffffffffffffffffffffffffffffffffffffff1673ffffffffffffffffffffffffffffffffffffffff1663693ec85e6040518163ffffffff167c010000000000000000000000000000000000000000000000000000000002815260040180806020018281038252600a8152602001807f6d696e4465706f73697400000000000000000000000000000000000000000000815250602001915050602060405180830381600087803b158015610baa57600080fd5b505af1158015610bbe573d6000803e3d6000fd5b505050506040513d6020811015610bd457600080fd5b81019080805190602001909291905050508282600201540310151515610bf957600080fd5b818160020160008282540392505081905550600260009054906101000a900473ffffffffffffffffffffffffffffffffffffffff1673ffffffffffffffffffffffffffffffffffffffff1663a9059cbb33846040518363ffffffff167c0100000000000000000000000000000000000000000000000000000000028152600401808373ffffffffffffffffffffffffffffffffffffffff1673ffffffffffffffffffffffffffffffffffffffff16815260200182815260200192505050602060405180830381600087803b158015610cd057600080fd5b505af1158015610ce4573d6000803e3d6000fd5b505050506040513d6020811015610cfa57600080fd5b81019080805190602001909291905050501515610d1657600080fd5b3373ffffffffffffffffffffffffffffffffffffffff1683600019167f9d9ed58779badf90c56d72f3b54def9f73dc875d8f86416c8334b55328c6c106848460020154604051808381526020018281526020019250505060405180910390a3505050565b60058054600181600116156101000203166002900480601f016020809104026020016040519081016040528092919081815260200182805460018160011615610100020316600290048015610e105780601f10610de557610100808354040283529160200191610e10565b820191906000526020600020905b815481529060010190602001808311610df357829003601f168201915b505050505081565b600060016000836000191660001916815260200190815260200160002090508060010160019054906101000a900473ffffffffffffffffffffffffffffffffffffffff1673ffffffffffffffffffffffffffffffffffffffff163373ffffffffffffffffffffffffffffffffffffffff16141515610e9557600080fd5b610e9e82610a23565b1515610ea957600080fd5b600081600301541480610edf57506000808260030154815260200190815260200160002060010160149054906101000a900460ff165b1515610eea57600080fd5b610ef382612f4a565b81600019167f8a51904a50ce4451be09dc08242bd2d5565b05cf0f4f5aa88c77f96fdf538b4260405160405180910390a25050565b600080600160008460001916600019168152602001908152602001600020600301549050600060016000856000191660001916815260200190815260200160002060030154118015610f9a575060008082815260200190815260200160002060010160149054906101000a900460ff16155b915050919050565b600060016000846000191660001916815260200190815260200160002090503373ffffffffffffffffffffffffffffffffffffffff168160010160019054906101000a900473ffffffffffffffffffffffffffffffffffffffff1673ffffffffffffffffffffffffffffffffffffffff1614151561101f57600080fd5b818160020160008282540192505081905550600260009054906101000a900473ffffffffffffffffffffffffffffffffffffffff1673ffffffffffffffffffffffffffffffffffffffff166323b872dd3330856040518463ffffffff167c0100000000000000000000000000000000000000000000000000000000028152600401808473ffffffffffffffffffffffffffffffffffffffff1673ffffffffffffffffffffffffffffffffffffffff1681526020018373ffffffffffffffffffffffffffffffffffffffff1673ffffffffffffffffffffffffffffffffffffffff1681526020018281526020019350505050602060405180830381600087803b15801561112a57600080fd5b505af115801561113e573d6000803e3d6000fd5b505050506040513d602081101561115457600080fd5b8101908080519060200190929190505050151561117057600080fd5b3373ffffffffffffffffffffffffffffffffffffffff1683600019167ff63fcfb210c709154f0260502b2586fcee5550d17dc828be3127ccdedec620ab848460020154604051808381526020018281526020019250505060405180910390a3505050565b60008473ffffffffffffffffffffffffffffffffffffffff161415801561123357506000600260009054906101000a900473ffffffffffffffffffffffffffffffffffffffff1673ffffffffffffffffffffffffffffffffffffffff16145b151561123e57600080fd5b60008373ffffffffffffffffffffffffffffffffffffffff161415801561129d57506000600360009054906101000a900473ffffffffffffffffffffffffffffffffffffffff1673ffffffffffffffffffffffffffffffffffffffff16145b15156112a857600080fd5b60008273ffffffffffffffffffffffffffffffffffffffff161415801561130757506000600460009054906101000a900473ffffffffffffffffffffffffffffffffffffffff1673ffffffffffffffffffffffffffffffffffffffff16145b151561131257600080fd5b83600260006101000a81548173ffffffffffffffffffffffffffffffffffffffff021916908373ffffffffffffffffffffffffffffffffffffffff16021790555082600360006101000a81548173ffffffffffffffffffffffffffffffffffffffff021916908373ffffffffffffffffffffffffffffffffffffffff16021790555081600460006101000a81548173ffffffffffffffffffffffffffffffffffffffff021916908373ffffffffffffffffffffffffffffffffffffffff16021790555080600590805190602001906113eb929190613741565b5050505050565b6000806000806000806000600160008b600019166000191681526020019081526020016000209550600460009054906101000a900473ffffffffffffffffffffffffffffffffffffffff1673ffffffffffffffffffffffffffffffffffffffff1663693ec85e6040518163ffffffff167c010000000000000000000000000000000000000000000000000000000002815260040180806020018281038252600a8152602001807f6d696e4465706f73697400000000000000000000000000000000000000000000815250602001915050602060405180830381600087803b1580156114dc57600080fd5b505af11580156114f0573d6000803e3d6000fd5b505050506040513d602081101561150657600080fd5b810190808051906020019092919050505094506115228a6129f3565b8061153b57508560010160009054906101000a900460ff165b151561154657600080fd5b60008660030154148061157c57506000808760030154815260200190815260200160002060010160149054906101000a900460ff165b151561158757600080fd5b84866002015410156115d65761159c8a612f4a565b89600019167f4a9ee335af9e32f32f2229943dc7a0d3b5adf7e4c5c4062b372eae8c476d928660405160405180910390a260009650611e99565b600360009054906101000a900473ffffffffffffffffffffffffffffffffffffffff1673ffffffffffffffffffffffffffffffffffffffff166332ed3d60600460009054906101000a900473ffffffffffffffffffffffffffffffffffffffff1673ffffffffffffffffffffffffffffffffffffffff1663693ec85e6040518163ffffffff167c010000000000000000000000000000000000000000000000000000000002815260040180806020018281038252600a8152602001807f766f746551756f72756d00000000000000000000000000000000000000000000815250602001915050602060405180830381600087803b1580156116d657600080fd5b505af11580156116ea573d6000803e3d6000fd5b505050506040513d602081101561170057600080fd5b8101908080519060200190929190505050600460009054906101000a900473ffffffffffffffffffffffffffffffffffffffff1673ffffffffffffffffffffffffffffffffffffffff1663693ec85e6040518163ffffffff167c010000000000000000000000000000000000000000000000000000000002815260040180806020018281038252600e8152602001807f636f6d6d697453746167654c656e000000000000000000000000000000000000815250602001915050602060405180830381600087803b1580156117d357600080fd5b505af11580156117e7573d6000803e3d6000fd5b505050506040513d60208110156117fd57600080fd5b8101908080519060200190929190505050600460009054906101000a900473ffffffffffffffffffffffffffffffffffffffff1673ffffffffffffffffffffffffffffffffffffffff1663693ec85e6040518163ffffffff167c010000000000000000000000000000000000000000000000000000000002815260040180806020018281038252600e8152602001807f72657665616c53746167654c656e000000000000000000000000000000000000815250602001915050602060405180830381600087803b1580156118d057600080fd5b505af11580156118e4573d6000803e3d6000fd5b505050506040513d60208110156118fa57600080fd5b81019080805190602001909291905050506040518463ffffffff167c0100000000000000000000000000000000000000000000000000000000028152600401808481526020018381526020018281526020019350505050602060405180830381600087803b15801561196b57600080fd5b505af115801561197f573d6000803e3d6000fd5b505050506040513d602081101561199557600080fd5b810190808051906020019092919050505093506064925060a060405190810160405280611aec6064611ade89611ad0600460009054906101000a900473ffffffffffffffffffffffffffffffffffffffff1673ffffffffffffffffffffffffffffffffffffffff1663693ec85e6040518163ffffffff167c010000000000000000000000000000000000000000000000000000000002815260040180806020018281038252600f8152602001807f64697370656e736174696f6e5063740000000000000000000000000000000000815250602001915050602060405180830381600087803b158015611a8657600080fd5b505af1158015611a9a573d6000803e3d6000fd5b505050506040513d6020811015611ab057600080fd5b81019080805190602001909291905050508a6131a590919063ffffffff16565b6131be90919063ffffffff16565b6131f190919063ffffffff16565b81526020013373ffffffffffffffffffffffffffffffffffffffff16815260200160001515815260200186815260200160008152506000808681526020019081526020016000206000820151816000015560208201518160010160006101000a81548173ffffffffffffffffffffffffffffffffffffffff021916908373ffffffffffffffffffffffffffffffffffffffff16021790555060408201518160010160146101000a81548160ff0219169083151502179055506060820151816002015560808201518160030155905050838660030181905550848660020160008282540392505081905550600260009054906101000a900473ffffffffffffffffffffffffffffffffffffffff1673ffffffffffffffffffffffffffffffffffffffff166323b872dd3330886040518463ffffffff167c0100000000000000000000000000000000000000000000000000000000028152600401808473ffffffffffffffffffffffffffffffffffffffff1673ffffffffffffffffffffffffffffffffffffffff1681526020018373ffffffffffffffffffffffffffffffffffffffff1673ffffffffffffffffffffffffffffffffffffffff1681526020018281526020019350505050602060405180830381600087803b158015611ccf57600080fd5b505af1158015611ce3573d6000803e3d6000fd5b505050506040513d6020811015611cf957600080fd5b81019080805190602001909291905050501515611d1557600080fd5b600360009054906101000a900473ffffffffffffffffffffffffffffffffffffffff1673ffffffffffffffffffffffffffffffffffffffff16636148fed5856040518263ffffffff167c01000000000000000000000000000000000000000000000000000000000281526004018082815260200191505060a060405180830381600087803b158015611da657600080fd5b505af1158015611dba573d6000803e3d6000fd5b505050506040513d60a0811015611dd057600080fd5b810190808051906020019092919080519060200190929190805190602001909291908051906020019092919080519060200190929190505050505050915091503373ffffffffffffffffffffffffffffffffffffffff168a600019167ff98a08756a3603420a080d66764f73deb1e30896c315cfed03e17f88f5eb30f7868c8c8787604051808681526020018060200184815260200183815260200182810382528686828181526020019250808284378201915050965050505050505060405180910390a38396505b5050505050509392505050565b6000611eb187610a23565b151515611ebd57600080fd5b611ec6876129f3565b151515611ed257600080fd5b600460009054906101000a900473ffffffffffffffffffffffffffffffffffffffff1673ffffffffffffffffffffffffffffffffffffffff1663693ec85e6040518163ffffffff167c010000000000000000000000000000000000000000000000000000000002815260040180806020018281038252600a8152602001807f6d696e4465706f73697400000000000000000000000000000000000000000000815250602001915050602060405180830381600087803b158015611f9457600080fd5b505af1158015611fa8573d6000803e3d6000fd5b505050506040513d6020811015611fbe57600080fd5b81019080805190602001909291905050508610151515611fdd57600080fd5b6001600088600019166000191681526020019081526020016000209050338160010160016101000a81548173ffffffffffffffffffffffffffffffffffffffff021916908373ffffffffffffffffffffffffffffffffffffffff16021790555061214c600460009054906101000a900473ffffffffffffffffffffffffffffffffffffffff1673ffffffffffffffffffffffffffffffffffffffff1663693ec85e6040518163ffffffff167c010000000000000000000000000000000000000000000000000000000002815260040180806020018281038252600d8152602001807f6170706c7953746167654c656e00000000000000000000000000000000000000815250602001915050602060405180830381600087803b15801561210257600080fd5b505af1158015612116573d6000803e3d6000fd5b505050506040513d602081101561212c57600080fd5b81019080805190602001909291905050504261320c90919063ffffffff16565b8160000181905550858160020181905550600260009054906101000a900473ffffffffffffffffffffffffffffffffffffffff1673ffffffffffffffffffffffffffffffffffffffff166323b872dd8260010160019054906101000a900473ffffffffffffffffffffffffffffffffffffffff1630896040518463ffffffff167c0100000000000000000000000000000000000000000000000000000000028152600401808473ffffffffffffffffffffffffffffffffffffffff1673ffffffffffffffffffffffffffffffffffffffff1681526020018373ffffffffffffffffffffffffffffffffffffffff1673ffffffffffffffffffffffffffffffffffffffff1681526020018281526020019350505050602060405180830381600087803b15801561227a57600080fd5b505af115801561228e573d6000803e3d6000fd5b505050506040513d60208110156122a457600080fd5b810190808051906020019092919050505015156122c057600080fd5b3373ffffffffffffffffffffffffffffffffffffffff1687600019167ff25d76a15fa19bc8fa331820c9a1ebefe8c7cac4e3772a5af8823edcdb5106918884600001548989898960405180878152602001868152602001806020018060200183810383528787828181526020019250808284378201915050838103825285858281815260200192508082843782019150509850505050505050505060405180910390a350505050505050565b60008151835114151561237e57600080fd5b600090505b82518110156123d1576123c4838281518110151561239d57fe5b9060200190602002015183838151811015156123b557fe5b906020019060200201516125a0565b8080600101915050612383565b505050565b600080600160008460001916600019168152602001908152602001600020600301549050612403836129f3565b801561242c57504260016000856000191660001916815260200190815260200160002060000154105b801561243e575061243c83610a23565b155b801561247b5750600081148061247a57506001151560008083815260200190815260200160002060010160149054906101000a900460ff161515145b5b15612489576001915061248e565b600091505b50919050565b6000806001600084600019166000191681526020019081526020016000206003015490506124c183610f28565b15156124cc57600080fd5b600360009054906101000a900473ffffffffffffffffffffffffffffffffffffffff1673ffffffffffffffffffffffffffffffffffffffff1663ee684830826040518263ffffffff167c010000000000000000000000000000000000000000000000000000000002815260040180828152602001915050602060405180830381600087803b15801561255d57600080fd5b505af1158015612571573d6000803e3d6000fd5b505050506040513d602081101561258757600080fd5b8101908080519060200190929190505050915050919050565b6000806000151560008086815260200190815260200160002060040160003373ffffffffffffffffffffffffffffffffffffffff1673ffffffffffffffffffffffffffffffffffffffff16815260200190815260200160002060009054906101000a900460ff16151514151561261557600080fd5b6001151560008086815260200190815260200160002060010160149054906101000a900460ff16151514151561264a57600080fd5b600360009054906101000a900473ffffffffffffffffffffffffffffffffffffffff1673ffffffffffffffffffffffffffffffffffffffff1663b43bd0693386866040518463ffffffff167c0100000000000000000000000000000000000000000000000000000000028152600401808473ffffffffffffffffffffffffffffffffffffffff1673ffffffffffffffffffffffffffffffffffffffff1681526020018381526020018281526020019350505050602060405180830381600087803b15801561271757600080fd5b505af115801561272b573d6000803e3d6000fd5b505050506040513d602081101561274157600080fd5b8101908080519060200190929190505050915061275f338585612aea565b905081600080868152602001908152602001600020600301600082825403925050819055508060008086815260200190815260200160002060000160008282540392505081905550600160008086815260200190815260200160002060040160003373ffffffffffffffffffffffffffffffffffffffff1673ffffffffffffffffffffffffffffffffffffffff16815260200190815260200160002060006101000a81548160ff021916908315150217905550600260009054906101000a900473ffffffffffffffffffffffffffffffffffffffff1673ffffffffffffffffffffffffffffffffffffffff1663a9059cbb33836040518363ffffffff167c0100000000000000000000000000000000000000000000000000000000028152600401808373ffffffffffffffffffffffffffffffffffffffff1673ffffffffffffffffffffffffffffffffffffffff16815260200182815260200192505050602060405180830381600087803b1580156128d757600080fd5b505af11580156128eb573d6000803e3d6000fd5b505050506040513d602081101561290157600080fd5b8101908080519060200190929190505050151561291d57600080fd5b3373ffffffffffffffffffffffffffffffffffffffff16847f6f4c982acc31b0af2cf1dc1556f21c0325d893782d65e83c68a5534a33f59957836040518082815260200191505060405180910390a350505050565b61297b816123d6565b1561298e576129898161322a565b6129b0565b61299781612494565b156129aa576129a5816132c7565b6129af565b600080fd5b5b50565b60008090505b81518110156129ef576129e282828151811015156129d357fe5b90602001906020020151612972565b80806001019150506129b9565b5050565b60008060016000846000191660001916815260200190815260200160002060000154119050919050565b60006020528060005260406000206000915090508060000154908060010160009054906101000a900473ffffffffffffffffffffffffffffffffffffffff16908060010160149054906101000a900460ff16908060020154908060030154905085565b600080600084815260200190815260200160002060040160008373ffffffffffffffffffffffffffffffffffffffff1673ffffffffffffffffffffffffffffffffffffffff16815260200190815260200160002060009054906101000a900460ff16905092915050565b600080600080600080878152602001908152602001600020600301549250600080878152602001908152602001600020600001549150600360009054906101000a900473ffffffffffffffffffffffffffffffffffffffff1673ffffffffffffffffffffffffffffffffffffffff1663b43bd0698888886040518463ffffffff167c0100000000000000000000000000000000000000000000000000000000028152600401808473ffffffffffffffffffffffffffffffffffffffff1673ffffffffffffffffffffffffffffffffffffffff1681526020018381526020018281526020019350505050602060405180830381600087803b158015612bed57600080fd5b505af1158015612c01573d6000803e3d6000fd5b505050506040513d6020811015612c1757600080fd5b8101908080519060200190929190505050905082828202811515612c3757fe5b0493505050509392505050565b60016020528060005260406000206000915090508060000154908060010160009054906101000a900460ff16908060010160019054906101000a900473ffffffffffffffffffffffffffffffffffffffff16908060020154908060030154905085565b600080600083815260200190815260200160002060010160149054906101000a900460ff16158015612da15750600360009054906101000a900473ffffffffffffffffffffffffffffffffffffffff1673ffffffffffffffffffffffffffffffffffffffff1663ee684830836040518263ffffffff167c010000000000000000000000000000000000000000000000000000000002815260040180828152602001915050602060405180830381600087803b158015612d6557600080fd5b505af1158015612d79573d6000803e3d6000fd5b505050506040513d6020811015612d8f57600080fd5b81019080805190602001909291905050505b1515612dac57600080fd5b6000600360009054906101000a900473ffffffffffffffffffffffffffffffffffffffff1673ffffffffffffffffffffffffffffffffffffffff1663053e71a6846040518263ffffffff167c010000000000000000000000000000000000000000000000000000000002815260040180828152602001915050602060405180830381600087803b158015612e3f57600080fd5b505af1158015612e53573d6000803e3d6000fd5b505050506040513d6020811015612e6957600080fd5b81019080805190602001909291905050501415612ea057600080838152602001908152602001600020600201546002029050612ed3565b60008083815260200190815260200160002060000154600080848152602001908152602001600020600201546002020390505b919050565b600460009054906101000a900473ffffffffffffffffffffffffffffffffffffffff1681565b600260009054906101000a900473ffffffffffffffffffffffffffffffffffffffff1681565b600360009054906101000a900473ffffffffffffffffffffffffffffffffffffffff1681565b600080600060016000856000191660001916815260200190815260200160002092508260010160009054906101000a900460ff1615612fb95783600019167fd1ffb796b7108387b2f02adf47b4b81a1690cf2a190422c87a4f670780103e6360405160405180910390a2612feb565b83600019167f2e5ec035f6eac8ff1cf7cdf36cfeca7c85413f9f67652dc2c13d20f337204a2660405160405180910390a25b8260010160019054906101000a900473ffffffffffffffffffffffffffffffffffffffff169150826002015490506001600085600019166000191681526020019081526020016000206000808201600090556001820160006101000a81549060ff02191690556001820160016101000a81549073ffffffffffffffffffffffffffffffffffffffff0219169055600282016000905560038201600090555050600081111561319f57600260009054906101000a900473ffffffffffffffffffffffffffffffffffffffff1673ffffffffffffffffffffffffffffffffffffffff1663a9059cbb83836040518363ffffffff167c0100000000000000000000000000000000000000000000000000000000028152600401808373ffffffffffffffffffffffffffffffffffffffff1673ffffffffffffffffffffffffffffffffffffffff16815260200182815260200192505050602060405180830381600087803b15801561315857600080fd5b505af115801561316c573d6000803e3d6000fd5b505050506040513d602081101561318257600080fd5b8101908080519060200190929190505050151561319e57600080fd5b5b50505050565b60008282111515156131b357fe5b818303905092915050565b600080828402905060008414806131df57508284828115156131dc57fe5b04145b15156131e757fe5b8091505092915050565b60008082848115156131ff57fe5b0490508091505092915050565b600080828401905083811015151561322057fe5b8091505092915050565b60016000826000191660001916815260200190815260200160002060010160009054906101000a900460ff16151561328e5780600019167fa7bc1d57d9006d9d248707c7b6828c1bab8c51719cc06d78c82a3ee891ef967c60405160405180910390a25b6001806000836000191660001916815260200190815260200160002060010160006101000a81548160ff02191690831515021790555050565b6000806001600084600019166000191681526020019081526020016000206003015491506132f482612ca7565b9050600160008084815260200190815260200160002060010160146101000a81548160ff021916908315150217905550600360009054906101000a900473ffffffffffffffffffffffffffffffffffffffff1673ffffffffffffffffffffffffffffffffffffffff1663053e71a6836040518263ffffffff167c010000000000000000000000000000000000000000000000000000000002815260040180828152602001915050602060405180830381600087803b1580156133b557600080fd5b505af11580156133c9573d6000803e3d6000fd5b505050506040513d60208110156133df57600080fd5b810190808051906020019092919050505060008084815260200190815260200160002060030181905550600360009054906101000a900473ffffffffffffffffffffffffffffffffffffffff1673ffffffffffffffffffffffffffffffffffffffff166349403183836040518263ffffffff167c010000000000000000000000000000000000000000000000000000000002815260040180828152602001915050602060405180830381600087803b15801561349a57600080fd5b505af11580156134ae573d6000803e3d6000fd5b505050506040513d60208110156134c457600080fd5b810190808051906020019092919050505015613583576134e38361322a565b80600160008560001916600019168152602001908152602001600020600201600082825401925050819055508183600019167fc4497224aa78dd50c9b3e344aab02596201ca1e6dca4057a91a6c02f83f4f6c16000808681526020019081526020016000206000015460008087815260200190815260200160002060030154604051808381526020018281526020019250505060405180910390a361373c565b61358c83612f4a565b600260009054906101000a900473ffffffffffffffffffffffffffffffffffffffff1673ffffffffffffffffffffffffffffffffffffffff1663a9059cbb60008085815260200190815260200160002060010160009054906101000a900473ffffffffffffffffffffffffffffffffffffffff16836040518363ffffffff167c0100000000000000000000000000000000000000000000000000000000028152600401808373ffffffffffffffffffffffffffffffffffffffff1673ffffffffffffffffffffffffffffffffffffffff16815260200182815260200192505050602060405180830381600087803b15801561368657600080fd5b505af115801561369a573d6000803e3d6000fd5b505050506040513d60208110156136b057600080fd5b810190808051906020019092919050505015156136cc57600080fd5b8183600019167f362a12431f779a2baff4f77f75ba7960ae993a5c41b425df11f7fd0af2b9cbe66000808681526020019081526020016000206000015460008087815260200190815260200160002060030154604051808381526020018281526020019250505060405180910390a35b505050565b828054600181600116156101000203166002900490600052602060002090601f016020900481019282601f1061378257805160ff19168380011785556137b0565b828001600101855582156137b0579182015b828111156137af578251825591602001919060010190613794565b5b5090506137bd91906137c1565b5090565b6137e391905b808211156137df5760008160009055506001016137c7565b5090565b905600a165627a7a723058200c2e6b3093591438342a0ab77314d50108b2528bb4c38e7929d29893c0c8edc60029",
  "source": "pragma solidity ^0.4.11;\n\nimport \"tokens/eip20/EIP20Interface.sol\";\nimport \"./Parameterizer.sol\";\nimport \"plcr-revival/PLCRVoting.sol\";\nimport \"zeppelin/math/SafeMath.sol\";\n\ncontract Registry {\n\n    // ------\n    // EVENTS\n    // ------\n\n    event _Application(bytes32 indexed listingHash, uint deposit, uint appEndDate, string listingID, string data, address indexed applicant);\n    event _Challenge(bytes32 indexed listingHash, uint challengeID, string data, uint commitEndDate, uint revealEndDate, address indexed challenger);\n    event _Deposit(bytes32 indexed listingHash, uint added, uint newTotal, address indexed owner);\n    event _Withdrawal(bytes32 indexed listingHash, uint withdrew, uint newTotal, address indexed owner);\n    event _ApplicationWhitelisted(bytes32 indexed listingHash);\n    event _ApplicationRemoved(bytes32 indexed listingHash);\n    event _ListingRemoved(bytes32 indexed listingHash);\n    event _ListingWithdrawn(bytes32 indexed listingHash);\n    event _TouchAndRemoved(bytes32 indexed listingHash);\n    event _ChallengeFailed(bytes32 indexed listingHash, uint indexed challengeID, uint rewardPool, uint totalTokens);\n    event _ChallengeSucceeded(bytes32 indexed listingHash, uint indexed challengeID, uint rewardPool, uint totalTokens);\n    event _RewardClaimed(uint indexed challengeID, uint reward, address indexed voter);\n\n    using SafeMath for uint;\n\n    struct Listing {\n        uint applicationExpiry; // Expiration date of apply stage\n        bool whitelisted;       // Indicates registry status\n        address owner;          // Owner of Listing\n        uint unstakedDeposit;   // Number of tokens in the listing not locked in a challenge\n        uint challengeID;       // Corresponds to a PollID in PLCRVoting\n    }\n\n    struct Challenge {\n        uint rewardPool;        // (remaining) Pool of tokens to be distributed to winning voters\n        address challenger;     // Owner of Challenge\n        bool resolved;          // Indication of if challenge is resolved\n        uint stake;             // Number of tokens at stake for either party during challenge\n        uint totalTokens;       // (remaining) Number of tokens used in voting by the winning side\n        mapping(address => bool) tokenClaims; // Indicates whether a voter has claimed a reward yet\n    }\n\n    // Maps challengeIDs to associated challenge data\n    mapping(uint => Challenge) public challenges;\n\n    // Maps listingHashes to associated listingHash data\n    mapping(bytes32 => Listing) public listings;\n\n    // Global Variables\n    EIP20Interface public token;\n    PLCRVoting public voting;\n    Parameterizer public parameterizer;\n    string public name;\n\n    /**\n    @dev Initializer. Can only be called once.\n    @param _token The address where the ERC20 token contract is deployed\n    */\n    function init(address _token, address _voting, address _parameterizer, string _name) public {\n        require(_token != 0 && address(token) == 0);\n        require(_voting != 0 && address(voting) == 0);\n        require(_parameterizer != 0 && address(parameterizer) == 0);\n\n        token = EIP20Interface(_token);\n        voting = PLCRVoting(_voting);\n        parameterizer = Parameterizer(_parameterizer);\n        name = _name;\n    }\n\n    // --------------------\n    // PUBLISHER INTERFACE:\n    // --------------------\n\n    /**\n    @dev                Allows a user to start an application. Takes tokens from user and sets\n                        apply stage end time.\n    @param _listingHash The hash of a potential listing a user is applying to add to the registry\n    @param _amount      The number of ERC20 tokens a user is willing to potentially stake\n    @param _data        Extra data relevant to the application. Think IPFS hashes.\n    */\n    function apply(bytes32 _listingHash, uint _amount, string _listingID, string _data) external {\n        require(!isWhitelisted(_listingHash));\n        require(!appWasMade(_listingHash));\n        require(_amount >= parameterizer.get(\"minDeposit\"));\n\n        // Sets owner\n        Listing storage listing = listings[_listingHash];\n        listing.owner = msg.sender;\n\n        // Sets apply stage end time\n        listing.applicationExpiry = block.timestamp.add(parameterizer.get(\"applyStageLen\"));\n        listing.unstakedDeposit = _amount;\n\n        // Transfers tokens from user to Registry contract\n        require(token.transferFrom(listing.owner, this, _amount));\n\n        emit _Application(_listingHash, _amount, listing.applicationExpiry, _listingID, _data, msg.sender);\n    }\n\n    /**\n    @dev                Allows the owner of a listingHash to increase their unstaked deposit.\n    @param _listingHash A listingHash msg.sender is the owner of\n    @param _amount      The number of ERC20 tokens to increase a user's unstaked deposit\n    */\n    function deposit(bytes32 _listingHash, uint _amount) external {\n        Listing storage listing = listings[_listingHash];\n\n        require(listing.owner == msg.sender);\n\n        listing.unstakedDeposit += _amount;\n        require(token.transferFrom(msg.sender, this, _amount));\n\n        emit _Deposit(_listingHash, _amount, listing.unstakedDeposit, msg.sender);\n    }\n\n    /**\n    @dev                Allows the owner of a listingHash to decrease their unstaked deposit.\n    @param _listingHash A listingHash msg.sender is the owner of.\n    @param _amount      The number of ERC20 tokens to withdraw from the unstaked deposit.\n    */\n    function withdraw(bytes32 _listingHash, uint _amount) external {\n        Listing storage listing = listings[_listingHash];\n\n        require(listing.owner == msg.sender);\n        require(_amount <= listing.unstakedDeposit);\n        require(listing.unstakedDeposit - _amount >= parameterizer.get(\"minDeposit\"));\n\n        listing.unstakedDeposit -= _amount;\n        require(token.transfer(msg.sender, _amount));\n\n        emit _Withdrawal(_listingHash, _amount, listing.unstakedDeposit, msg.sender);\n    }\n\n    /**\n    @dev                Allows the owner of a listingHash to remove the listingHash from the whitelist\n                        Returns all tokens to the owner of the listingHash\n    @param _listingHash A listingHash msg.sender is the owner of.\n    */\n    function exit(bytes32 _listingHash) external {\n        Listing storage listing = listings[_listingHash];\n\n        require(msg.sender == listing.owner);\n        require(isWhitelisted(_listingHash));\n\n        // Cannot exit during ongoing challenge\n        require(listing.challengeID == 0 || challenges[listing.challengeID].resolved);\n\n        // Remove listingHash & return tokens\n        resetListing(_listingHash);\n        emit _ListingWithdrawn(_listingHash);\n    }\n\n    // -----------------------\n    // TOKEN HOLDER INTERFACE:\n    // -----------------------\n\n    /**\n    @dev                Starts a poll for a listingHash which is either in the apply stage or\n                        already in the whitelist. Tokens are taken from the challenger and the\n                        applicant's deposits are locked.\n    @param _listingHash The listingHash being challenged, whether listed or in application\n    @param _data        Extra data relevant to the challenge. Think IPFS hashes.\n    */\n    function challenge(bytes32 _listingHash, string _data) external returns (uint challengeID) {\n        Listing storage listing = listings[_listingHash];\n        uint minDeposit = parameterizer.get(\"minDeposit\");\n\n        // Listing must be in apply stage or already on the whitelist\n        require(appWasMade(_listingHash) || listing.whitelisted);\n        // Prevent multiple challenges\n        require(listing.challengeID == 0 || challenges[listing.challengeID].resolved);\n\n        if (listing.unstakedDeposit < minDeposit) {\n            // Not enough tokens, listingHash auto-delisted\n            resetListing(_listingHash);\n            emit _TouchAndRemoved(_listingHash);\n            return 0;\n        }\n\n        // Starts poll\n        uint pollID = voting.startPoll(\n            parameterizer.get(\"voteQuorum\"),\n            parameterizer.get(\"commitStageLen\"),\n            parameterizer.get(\"revealStageLen\")\n        );\n\n        uint oneHundred = 100; // Kludge that we need to use SafeMath\n        challenges[pollID] = Challenge({\n            challenger: msg.sender,\n            rewardPool: ((oneHundred.sub(parameterizer.get(\"dispensationPct\"))).mul(minDeposit)).div(100),\n            stake: minDeposit,\n            resolved: false,\n            totalTokens: 0\n        });\n\n        // Updates listingHash to store most recent challenge\n        listing.challengeID = pollID;\n\n        // Locks tokens for listingHash during challenge\n        listing.unstakedDeposit -= minDeposit;\n\n        // Takes tokens from challenger\n        require(token.transferFrom(msg.sender, this, minDeposit));\n\n        var (commitEndDate, revealEndDate,) = voting.pollMap(pollID);\n\n        emit _Challenge(_listingHash, pollID, _data, commitEndDate, revealEndDate, msg.sender);\n        return pollID;\n    }\n\n    /**\n    @dev                Updates a listingHash's status from 'application' to 'listing' or resolves\n                        a challenge if one exists.\n    @param _listingHash The listingHash whose status is being updated\n    */\n    function updateStatus(bytes32 _listingHash) public {\n        if (canBeWhitelisted(_listingHash)) {\n            whitelistApplication(_listingHash);\n        } else if (challengeCanBeResolved(_listingHash)) {\n            resolveChallenge(_listingHash);\n        } else {\n            revert();\n        }\n    }\n\n    /**\n    @dev                  Updates an array of listingHashes' status from 'application' to 'listing' or resolves\n                          a challenge if one exists.\n    @param _listingHashes The listingHashes whose status are being updated\n    */\n    function updateStatuses(bytes32[] _listingHashes) public {\n        // loop through arrays, revealing each individual vote values\n        for (uint i = 0; i < _listingHashes.length; i++) {\n            updateStatus(_listingHashes[i]);\n        }\n    }\n\n    // ----------------\n    // TOKEN FUNCTIONS:\n    // ----------------\n\n    /**\n    @dev                Called by a voter to claim their reward for each completed vote. Someone\n                        must call updateStatus() before this can be called.\n    @param _challengeID The PLCR pollID of the challenge a reward is being claimed for\n    @param _salt        The salt of a voter's commit hash in the given poll\n    */\n    function claimReward(uint _challengeID, uint _salt) public {\n        // Ensures the voter has not already claimed tokens and challenge results have been processed\n        require(challenges[_challengeID].tokenClaims[msg.sender] == false);\n        require(challenges[_challengeID].resolved == true);\n\n        uint voterTokens = voting.getNumPassingTokens(msg.sender, _challengeID, _salt);\n        uint reward = voterReward(msg.sender, _challengeID, _salt);\n\n        // Subtracts the voter's information to preserve the participation ratios\n        // of other voters compared to the remaining pool of rewards\n        challenges[_challengeID].totalTokens -= voterTokens;\n        challenges[_challengeID].rewardPool -= reward;\n\n        // Ensures a voter cannot claim tokens again\n        challenges[_challengeID].tokenClaims[msg.sender] = true;\n\n        require(token.transfer(msg.sender, reward));\n\n        emit _RewardClaimed(_challengeID, reward, msg.sender);\n    }\n\n    /**\n    @dev                 Called by a voter to claim their rewards for each completed vote. Someone\n                         must call updateStatus() before this can be called.\n    @param _challengeIDs The PLCR pollIDs of the challenges rewards are being claimed for\n    @param _salts        The salts of a voter's commit hashes in the given polls\n    */\n    function claimRewards(uint[] _challengeIDs, uint[] _salts) public {\n        // make sure the array lengths are the same\n        require(_challengeIDs.length == _salts.length);\n\n        // loop through arrays, claiming each individual vote reward\n        for (uint i = 0; i < _challengeIDs.length; i++) {\n            claimReward(_challengeIDs[i], _salts[i]);\n        }\n    }\n\n    // --------\n    // GETTERS:\n    // --------\n\n    /**\n    @dev                Calculates the provided voter's token reward for the given poll.\n    @param _voter       The address of the voter whose reward balance is to be returned\n    @param _challengeID The pollID of the challenge a reward balance is being queried for\n    @param _salt        The salt of the voter's commit hash in the given poll\n    @return             The uint indicating the voter's reward\n    */\n    function voterReward(address _voter, uint _challengeID, uint _salt)\n    public view returns (uint) {\n        uint totalTokens = challenges[_challengeID].totalTokens;\n        uint rewardPool = challenges[_challengeID].rewardPool;\n        uint voterTokens = voting.getNumPassingTokens(_voter, _challengeID, _salt);\n        return (voterTokens * rewardPool) / totalTokens;\n    }\n\n    /**\n    @dev                Determines whether the given listingHash be whitelisted.\n    @param _listingHash The listingHash whose status is to be examined\n    */\n    function canBeWhitelisted(bytes32 _listingHash) view public returns (bool) {\n        uint challengeID = listings[_listingHash].challengeID;\n\n        // Ensures that the application was made,\n        // the application period has ended,\n        // the listingHash can be whitelisted,\n        // and either: the challengeID == 0, or the challenge has been resolved.\n        if (\n            appWasMade(_listingHash) &&\n            listings[_listingHash].applicationExpiry < now &&\n            !isWhitelisted(_listingHash) &&\n            (challengeID == 0 || challenges[challengeID].resolved == true)\n        ) { return true; }\n\n        return false;\n    }\n\n    /**\n    @dev                Returns true if the provided listingHash is whitelisted\n    @param _listingHash The listingHash whose status is to be examined\n    */\n    function isWhitelisted(bytes32 _listingHash) view public returns (bool whitelisted) {\n        return listings[_listingHash].whitelisted;\n    }\n\n    /**\n    @dev                Returns true if apply was called for this listingHash\n    @param _listingHash The listingHash whose status is to be examined\n    */\n    function appWasMade(bytes32 _listingHash) view public returns (bool exists) {\n        return listings[_listingHash].applicationExpiry > 0;\n    }\n\n    /**\n    @dev                Returns true if the application/listingHash has an unresolved challenge\n    @param _listingHash The listingHash whose status is to be examined\n    */\n    function challengeExists(bytes32 _listingHash) view public returns (bool) {\n        uint challengeID = listings[_listingHash].challengeID;\n\n        return (listings[_listingHash].challengeID > 0 && !challenges[challengeID].resolved);\n    }\n\n    /**\n    @dev                Determines whether voting has concluded in a challenge for a given\n                        listingHash. Throws if no challenge exists.\n    @param _listingHash A listingHash with an unresolved challenge\n    */\n    function challengeCanBeResolved(bytes32 _listingHash) view public returns (bool) {\n        uint challengeID = listings[_listingHash].challengeID;\n\n        require(challengeExists(_listingHash));\n\n        return voting.pollEnded(challengeID);\n    }\n\n    /**\n    @dev                Determines the number of tokens awarded to the winning party in a challenge.\n    @param _challengeID The challengeID to determine a reward for\n    */\n    function determineReward(uint _challengeID) public view returns (uint) {\n        require(!challenges[_challengeID].resolved && voting.pollEnded(_challengeID));\n\n        // Edge case, nobody voted, give all tokens to the challenger.\n        if (voting.getTotalNumberOfTokensForWinningOption(_challengeID) == 0) {\n            return 2 * challenges[_challengeID].stake;\n        }\n\n        return (2 * challenges[_challengeID].stake) - challenges[_challengeID].rewardPool;\n    }\n\n    /**\n    @dev                Getter for Challenge tokenClaims mappings\n    @param _challengeID The challengeID to query\n    @param _voter       The voter whose claim status to query for the provided challengeID\n    */\n    function tokenClaims(uint _challengeID, address _voter) public view returns (bool) {\n        return challenges[_challengeID].tokenClaims[_voter];\n    }\n\n    // ----------------\n    // PRIVATE FUNCTIONS:\n    // ----------------\n\n    /**\n    @dev                Determines the winner in a challenge. Rewards the winner tokens and\n                        either whitelists or de-whitelists the listingHash.\n    @param _listingHash A listingHash with a challenge that is to be resolved\n    */\n    function resolveChallenge(bytes32 _listingHash) private {\n        uint challengeID = listings[_listingHash].challengeID;\n\n        // Calculates the winner's reward,\n        // which is: (winner's full stake) + (dispensationPct * loser's stake)\n        uint reward = determineReward(challengeID);\n\n        // Sets flag on challenge being processed\n        challenges[challengeID].resolved = true;\n\n        // Stores the total tokens used for voting by the winning side for reward purposes\n        challenges[challengeID].totalTokens =\n            voting.getTotalNumberOfTokensForWinningOption(challengeID);\n\n        // Case: challenge failed\n        if (voting.isPassed(challengeID)) {\n            whitelistApplication(_listingHash);\n            // Unlock stake so that it can be retrieved by the applicant\n            listings[_listingHash].unstakedDeposit += reward;\n\n            emit _ChallengeFailed(_listingHash, challengeID, challenges[challengeID].rewardPool, challenges[challengeID].totalTokens);\n        }\n        // Case: challenge succeeded or nobody voted\n        else {\n            resetListing(_listingHash);\n            // Transfer the reward to the challenger\n            require(token.transfer(challenges[challengeID].challenger, reward));\n\n            emit _ChallengeSucceeded(_listingHash, challengeID, challenges[challengeID].rewardPool, challenges[challengeID].totalTokens);\n        }\n    }\n\n    /**\n    @dev                Called by updateStatus() if the applicationExpiry date passed without a\n                        challenge being made. Called by resolveChallenge() if an\n                        application/listing beat a challenge.\n    @param _listingHash The listingHash of an application/listingHash to be whitelisted\n    */\n    function whitelistApplication(bytes32 _listingHash) private {\n        if (!listings[_listingHash].whitelisted) { emit _ApplicationWhitelisted(_listingHash); }\n        listings[_listingHash].whitelisted = true;\n    }\n\n    /**\n    @dev                Deletes a listingHash from the whitelist and transfers tokens back to owner\n    @param _listingHash The listing hash to delete\n    */\n    function resetListing(bytes32 _listingHash) private {\n        Listing storage listing = listings[_listingHash];\n\n        // Emit events before deleting listing to check whether is whitelisted\n        if (listing.whitelisted) {\n            emit _ListingRemoved(_listingHash);\n        } else {\n            emit _ApplicationRemoved(_listingHash);\n        }\n\n        // Deleting listing to prevent reentry\n        address owner = listing.owner;\n        uint unstakedDeposit = listing.unstakedDeposit;\n        delete listings[_listingHash];\n        \n        // Transfers any remaining balance back to the owner\n        if (unstakedDeposit > 0){\n            require(token.transfer(owner, unstakedDeposit));\n        }\n    }\n}\n",
  "sourcePath": "/Users/edu/Dappnode/eduadiez/tcr/contracts/Registry.sol",
  "compiler": {
    "name": "solc",
    "version": "0.4.26+commit.4563c3fc.Emscripten.clang"
  },
  "schemaVersion": "3.3.4",
  "updatedAt": "2021-02-23T18:54:10.256Z",
  "devdoc": {
    "methods": {
      "appWasMade(bytes32)": {
        "details": "Returns true if apply was called for this listingHash",
        "params": {
          "_listingHash": "The listingHash whose status is to be examined"
        }
      },
      "apply(bytes32,uint256,string,string)": {
        "details": "Allows a user to start an application. Takes tokens from user and sets apply stage end time.",
        "params": {
          "_amount": "The number of ERC20 tokens a user is willing to potentially stake",
          "_data": "Extra data relevant to the application. Think IPFS hashes.",
          "_listingHash": "The hash of a potential listing a user is applying to add to the registry"
        }
      },
      "canBeWhitelisted(bytes32)": {
        "details": "Determines whether the given listingHash be whitelisted.",
        "params": {
          "_listingHash": "The listingHash whose status is to be examined"
        }
      },
      "challenge(bytes32,string)": {
        "details": "Starts a poll for a listingHash which is either in the apply stage or already in the whitelist. Tokens are taken from the challenger and the applicant's deposits are locked.",
        "params": {
          "_data": "Extra data relevant to the challenge. Think IPFS hashes.",
          "_listingHash": "The listingHash being challenged, whether listed or in application"
        }
      },
      "challengeCanBeResolved(bytes32)": {
        "details": "Determines whether voting has concluded in a challenge for a given listingHash. Throws if no challenge exists.",
        "params": {
          "_listingHash": "A listingHash with an unresolved challenge"
        }
      },
      "challengeExists(bytes32)": {
        "details": "Returns true if the application/listingHash has an unresolved challenge",
        "params": {
          "_listingHash": "The listingHash whose status is to be examined"
        }
      },
      "claimReward(uint256,uint256)": {
        "details": "Called by a voter to claim their reward for each completed vote. Someone must call updateStatus() before this can be called.",
        "params": {
          "_challengeID": "The PLCR pollID of the challenge a reward is being claimed for",
          "_salt": "The salt of a voter's commit hash in the given poll"
        }
      },
      "claimRewards(uint256[],uint256[])": {
        "details": "Called by a voter to claim their rewards for each completed vote. Someone must call updateStatus() before this can be called.",
        "params": {
          "_challengeIDs": "The PLCR pollIDs of the challenges rewards are being claimed for",
          "_salts": "The salts of a voter's commit hashes in the given polls"
        }
      },
      "deposit(bytes32,uint256)": {
        "details": "Allows the owner of a listingHash to increase their unstaked deposit.",
        "params": {
          "_amount": "The number of ERC20 tokens to increase a user's unstaked deposit",
          "_listingHash": "A listingHash msg.sender is the owner of"
        }
      },
      "determineReward(uint256)": {
        "details": "Determines the number of tokens awarded to the winning party in a challenge.",
        "params": {
          "_challengeID": "The challengeID to determine a reward for"
        }
      },
      "exit(bytes32)": {
        "details": "Allows the owner of a listingHash to remove the listingHash from the whitelist Returns all tokens to the owner of the listingHash",
        "params": {
          "_listingHash": "A listingHash msg.sender is the owner of."
        }
      },
      "init(address,address,address,string)": {
        "details": "Initializer. Can only be called once.",
        "params": {
          "_token": "The address where the ERC20 token contract is deployed"
        }
      },
      "isWhitelisted(bytes32)": {
        "details": "Returns true if the provided listingHash is whitelisted",
        "params": {
          "_listingHash": "The listingHash whose status is to be examined"
        }
      },
      "tokenClaims(uint256,address)": {
        "details": "Getter for Challenge tokenClaims mappings",
        "params": {
          "_challengeID": "The challengeID to query",
          "_voter": "The voter whose claim status to query for the provided challengeID"
        }
      },
      "updateStatus(bytes32)": {
        "details": "Updates a listingHash's status from 'application' to 'listing' or resolves a challenge if one exists.",
        "params": {
          "_listingHash": "The listingHash whose status is being updated"
        }
      },
      "updateStatuses(bytes32[])": {
        "details": "Updates an array of listingHashes' status from 'application' to 'listing' or resolves a challenge if one exists.",
        "params": {
          "_listingHashes": "The listingHashes whose status are being updated"
        }
      },
      "voterReward(address,uint256,uint256)": {
        "details": "Calculates the provided voter's token reward for the given poll.",
        "params": {
          "_challengeID": "The pollID of the challenge a reward balance is being queried for",
          "_salt": "The salt of the voter's commit hash in the given poll",
          "_voter": "The address of the voter whose reward balance is to be returned"
        },
        "return": "The uint indicating the voter's reward"
      },
      "withdraw(bytes32,uint256)": {
        "details": "Allows the owner of a listingHash to decrease their unstaked deposit.",
        "params": {
          "_amount": "The number of ERC20 tokens to withdraw from the unstaked deposit.",
          "_listingHash": "A listingHash msg.sender is the owner of."
        }
      }
    }
  },
  "userdoc": {
    "methods": {}
  }
}